:100000000C945F020C947C020C947C020C94771B81
:100010000C947C020C947C020C947C020C947C0268
:100020000C947C020C947C020C94A2220C947623F7
:100030000C94BB1D0C947C020C947C020C947C02EE
:100040000C947C020C947C020C947C020C947C0238
:100050000C947C020C945E1E0C947C020C947C022A
:100060000C947C020C947C020C947C020C947C0218
:100070000C947C020C947C020C947C020C947C0208
:100080000C947C020C947C020C947C020C947C02F8
:100090000C947C020C947C020C947C020C947C02E8
:1000A0000C947C020C947C020C947C022D001C00AD
:1000B00012001800140006000C00080004000A00DA
:1000C0002A001B000D000E0005002C4122520000EA
:1000D000000000001D000F0007001A002D02130091
:1000E0000B00170016001100190015001000090080
:1000F0002B00245228320000000000000100010003
:1001000001000100010006280C240822042101003E
:1001100001000100010001000100010001000000D8
:1001200000000000010001000100010001000100C9
:100130000B311732163411380100010001000100A3
:1001400001000100E4000000000000001E001F008C
:10015000200021002200560029003500340036001E
:100160002A0000000000380200000000010000002A
:10017000000000002300240025002600270037008F
:100180003402200221021F0200001E02280000008B
:100190002C00265223520000000000000100010044
:1001A00001000100010056282924352234210100D4
:1001B0000100010001000100010001000100000038
:1001C0000000000001000100010001000100010029
:1001D0003431203221341F380100010001000100B8
:1001E00001000100010000000000000031022E00AB
:1001F00035022E02360231002F002F022602330074
:100200002A00000051005200000025522652000032
:1002100000000000370223022402220225023302DA
:100220002702300230003800000050004F00370035
:100230002C0001000000000000000000010001008F
:1002400001000100010031282F242F222621010066
:100250000100010001000100010001000100000097
:100260000000000001000100010001000100010088
:1002700027313032303438380100010001000100EC
:100280000100010001000000000000003A003B00F6
:100290003C003D003E0091002900AC00BC00AD00D8
:1002A000440000004E004B00AA00010001000000C5
:1002B000000000003F004000410042004300AE004B
:1002C000BB00AB0039009000A9004A004D000000BF
:1002D00045000100010000000000000000000000D7
:1002E000000000002A2B2800000000000000000091
:1002F0000000000000000029000000002C1E342037
:10030000212224342627252E362D3738271E1F205C
:100310002122232425263333362E37381F040506A1
:100320000708090A0B0C0D0E0F10111213141516E5
:100330001718191A1B1C1D2F3130232D35040506E3
:100340000708090A0B0C0D0E0F10111213141516C5
:100350001718191A1B1C1D2F3130354C00000000D6
:10036000000000000000000000000000000000008D
:10037000000000000000000000000000000000007D
:100380007E0F00D4FFFFFFC7000000781A0346006D
:10039000650072007200690073002000730077002E
:1003A0006500650070000000080344005000420032
:1003B00000000403090409023B00020100A0FA093D
:1003C0000400000103010100092111010001224084
:1003D0000007058103080001090401000103000072
:1003E00000092111010001227B0007058203200082
:1003F000011201000200000008ABC23939010001FE
:1004000002000105010902A10185020901A10005FF
:1004100009190129081500250195087501810205B2
:1004200001093009311581257F950275088106097A
:10043000381581257F950175088106050C0A38025B
:100440001581257F950175088106C0C005010980C9
:10045000A101850319012AB700150126B7009501EE
:1004600075108100C0050C0901A101850419012A3C
:10047000A002150126A002950175108100C005019A
:100480000906A101050719E029E7150025019508CE
:10049000750181029501750881010507190029FF81
:1004A000150026FF00950675088100050819012929
:1004B00005950575019102950175039101C01124FF
:1004C0001FBECFEFDAE0DEBFCDBF11E0A0E0B1E0AC
:1004D000EAE6FCE402C005900D92A03CB107D9F712
:1004E00022E0A0ECB1E001C01D92A33BB207E1F70E
:1004F0000E947F140C94EC250C9400008730B8F413
:100500006830A8F4453098F450E095E0699F400DBC
:10051000511D1124FA0198E2899FE00DF11D11246B
:10052000EE0FFF1FE455FF4F85919491089580E0F1
:1005300090E008950E947E0208959C013A9521154D
:100540003F4150F5FC01EE27F170BC016627727047
:10055000AC01442754709C012227387094FF0EC0D0
:1005600080E1EF2B09F480E0672B09F08062452BD6
:1005700009F08064232B89F08068089581E0EF2BD7
:1005800009F480E0672B09F08260452B09F0846054
:10059000232B19F08860089580E00895CF93DF93AE
:1005A000EB010E949D02FE010995DF91CF91089514
:1005B000CF93DF93EC01805E9109089720F06BE602
:1005C00077E0209711F464E275E0CE010E94CE023C
:1005D0008C2F0E948304DF91CF910895CF93DF93F6
:1005E000EC010E94D004CE01805E9109089720F0B2
:1005F00062E777E0209711F46BE275E0CE010E948C
:10060000CE02DF91CF9108950F931F93CF93DF9385
:100610008C01EB010E94D802209741F4C8010E948E
:10062000EE02DF91CF911F910F9108958FE99FE026
:100630000197F1F700C000002197EECF70E060E075
:100640008933910511F460E570E00E940403089578
:1006500081E0089581E008950E942A030895089595
:100660000E942F030895A5E0B0E0E9E3F3E00C94C5
:10067000582549835A833091C70189819A81311164
:1006800019C0662399F0222389F00E94E408182FEC
:10069000682F89819A810E94C00869817A81812F9F
:1006A0000E94500F2596E3E00C9474250E94D20816
:1006B000182FF3CF0E94E40869817A81F1CFFC0101
:1006C000262F408151816281738184810E9433038E
:1006D000089581E00895CF93DF93EC0160E00E94DC
:1006E0005F03BE010E943003DF91CF9108950E9405
:1006F000CE1008950E94D210089508950E948F0789
:100700000E947D032FEF84E39CE0215080409040C5
:10071000E1F700C0000008950E947E030E94821E3F
:1007200008950E947E030E94931E08950F931F93C5
:10073000CF93DF938C0161E00E945F03EC01B8016D
:100740000E942C03811106C080E0DF91CF911F91A0
:100750000F910895B801CE010E9436178823A1F3A6
:10076000B801CE010E94931A882371F3B801CE011B
:100770000E94C118882341F3B801CE010E94051AD6
:10078000882311F3F8018281882361F0C330FCE7EC
:10079000DF07E9F058F4C115ECE7DE07A9F0C13036
:1007A000DC47B9F0C8010E942803CFCFCB358CE7D6
:1007B000D807A9F0CC35ECE7DE0771F0CA35DC4785
:1007C00089F70E94E90CEECF0E948C03BDCF0E94F6
:1007D000F10C0E949103B8CF0E94DF0CE3CF0E947E
:1007E000ED0CE0CF0E94981D0E941C0408950E9409
:1007F00020040E949D1D089508950E94FC03089501
:1008000081E008950895CF93DF93D82F0E940004CC
:10081000C82F882319F08D2F0E9402048C2FDF919E
:10082000CF9108950895CF93C82F0E94FD038C2F78
:100830000E940304CF91089580E00E94130408955C
:100840000E949D1C0E9413040895CF930E949D1C3A
:10085000C82F8091C2018C1779F0C093C2010E9409
:10086000271E6093C3017093C4018093C5019093C8
:10087000C6018C2F0E941304CF910895ABE0B0E025
:10088000E4E4F4E00C9459254F83588769877A870C
:100890008B8761110E942A0C1E821D8285E0FE0159
:1008A0003796DE01119601900D928A95E1F78C81C1
:1008B0009D81892B61F449815A816B817C818D8175
:1008C0009E810E94500B2B96E2E00C947525898145
:1008D0009A8189238F3F79F3CE0101960E946903A3
:1008E0008111E9CFF0CFFC01808191810E9416092E
:1008F0000895662329F00E9403150E94D6150895D5
:100900000E945D15FACFCF93C82F8823B9F08CEFE2
:100910008C0F813AA8F46C2F809100019091010115
:100920000E94291D882329F08C2F0E94E70B0E942A
:100930004B0C8C2F0E94DF0B0E944B0CCF91089523
:1009400080E28C0F883048F4C77081E001C0880FC6
:10095000CA95EAF70E940A0CEFCFEBE5EC0FE33003
:1009600040F4F0E0EA57FE4F808190E00E94CD1CF9
:10097000E5CFE8E5EC0FE93150F4F0E0EE0FFF1FB2
:10098000EC5AFE4F808191810E94F21CD7CF83E305
:100990008C0F833198F661E08C2F0E947904CECFC2
:1009A000882381F19CEF980F913A28F40E94E70B7D
:1009B0000E944B0C089590E2980F983050F4877085
:1009C00091E001C0990F8A95EAF7892F0E94100CD7
:1009D000EFCF9BE5980F933028F490E080E00E94E1
:1009E000CD1C089598E5980F993128F490E080E0A7
:1009F0000E94F21C089593E3980F933118F460E07D
:100A00000E94790408951F93CF93DF93182FEB0171
:100A10000E948304209739F4812F0E94D004DF9133
:100A2000CF911F9108958FE99FE00197F1F700C0E2
:100A300000002197EFCF70E060E0893311F460E5AA
:100A400070E00E9403050895882321F00E940A0C9B
:100A50000E944B0C0895882321F00E94100C0E94E4
:100A60004B0C0895B0E0A0E0E8E3F5E00C945225CB
:100A70006C01D62FC72FFC011281F580F2949FE004
:100A8000F9220E94000CE82E8823B9F0E12E1123F0
:100A9000A1F08C2F807F803421F080E28D0F883090
:100AA000D0F08091890282FF16C082E00E94AE0CD5
:100AB0000E94000C91E0E82EE926BC2EB2948FE053
:100AC000B822FBE0FB1508F468C0EB2DF0E0E25122
:100AD000FA4D0C944325E12CF0CF0C2F0F70C07F02
:100AE00011F00295007F112399F0002359F080E264
:100AF0008D0F883010F0D11107C0802F0E940A0C92
:100B00000E944B0C8D2F41C0802F0E941D0CF8CFEE
:100B10008D2F0E94D004002309F43FC080E28D0F86
:100B2000883010F0D11104C0802F0E94100C03C037
:100B3000802F0E94230C0E944B0C2FC00C2F0F7093
:100B4000C07FC03211F00295007FDD2381F0D130EB
:100B500009F468C0112309F472C0FF2009F468C0C9
:100B6000F601858180FFCECF8F70858361C0809133
:100B7000890282FD33C0112359F0002329F0802F10
:100B80000E940A0C0E944B0C80E00E94830405C066
:100B900080E00E94D0040111C7CFEB2DE850FF0B7D
:100BA000349720F40E949D1C0E941304EE2089F0CB
:100BB0000E94FC0B80FD0DC0F60112820E94F60B14
:100BC0000E941E08C6010E9441070E94F60B0E9467
:100BD0002E08CDB7DEB7E9E00C946E25112389F01D
:100BE000F11006C00E942D0C802B0E942405D5CF49
:100BF00021E0F212F7CF0E942D0C802B0E94340CC2
:100C0000CCCFF11006C00E94410C802F0E942B0512
:100C1000C4CF31E0F31609F2802F0E942B050E9409
:100C2000410CBBCF112331F085E08F1508F4B5CF0F
:100C3000802FDBCF94E09F1508F4AFCFE6CFFF20E5
:100C400021F3D93349F4FFEF27EE33E0F150204090
:100C50003040E1F700C000008D2F0E94D0049DCFEE
:100C60008C2F86958695837069F0813009F095CF39
:100C70008D2F9C2F9370111102C080E090E00E9494
:100C8000F21C8BCF8D2F9C2F9370111102C080E02E
:100C900090E00E94CD1C81CF612F8D2F0E9479049E
:100CA0007CCF8C2F8370A1F5111177CF4D2F4295FA
:100CB00046954770440F440F2D2F2F7030E0042EBF
:100CC00002C0220F331F0A94E2F790E080E0D4FFC5
:100CD00009C08FE090E002C0880F991F4A95E2F7A3
:100CE00080959095C695C695C370822B932BC23084
:100CF00049F058F4C13019F00E94EE074ECF0E941F
:100D0000E5074BCF0E94F70748CF0E94E20745CF87
:100D10008695112311F08C2F8170882309F43DCF23
:100D20004D2F429546954770440F440F2D2F2F703D
:100D300030E0042E02C0220F331F0A94E2F790E045
:100D400080E0D4FF09C08FE090E002C0880F991FB7
:100D50004A95E2F780959095C695C695C370822B0B
:100D6000932BC23049F058F4C13019F00E94590851
:100D700014CF0E94500811CF0E9462080ECF0E942B
:100D800006080BCFCF70112329F08C2F0E941E086C
:100D90008D2F2BCF8D2F0E942B058C2F0E942E087C
:100DA000FCCED23F51F160F4D03FB9F0D13F81F099
:100DB000112309F449C0F110A5CE8C2F8F7121C0E9
:100DC000D33F11F1D43FA1F78091890282FD26C063
:100DD0008C2F8F71112311F314C0112349F084E07B
:100DE0008F1508F4DACE8C2F8F710E944008D5CE73
:100DF00095E09F1508F4D1CEF6CF8C2F8F7111118D
:100E0000CDCF0E941E08C9CE112329F08C2F8F71DF
:100E10000E941208C2CE0E940D08BFCE112349F0D5
:100E2000CF718C2F0E941E0863E08C2F0E94900CC3
:100E3000B4CE81E00E94AE0CE1E0EF1508F0ADCE3B
:100E400082E00E94AE0CA9CEF110FBCE8C2F8F71E8
:100E5000A5CF0F931F93CF93DF93EC016881798126
:100E60008A810E9421098C010E946B080E94E1077F
:100E7000B801CE010E943205DF91CF911F910F91F1
:100E80000895CF93DF93EC018B819C81892B29F00E
:100E90008881998189238F3F51F4DF91CF91089503
:100EA000CE010E942907CE010E946B03F6CFCE012E
:100EB0000E9496038111F4CF0E94000C882369F3ED
:100EC0008A81882351F38091890282FFE6CF82E0F4
:100ED0000E94AE0CE2CF882321F00E941D0C0E94DC
:100EE0004B0C0895882321F00E94230C0E944B0C88
:100EF000089590E080E00E94CD1C90E080E00E9488
:100F0000F21C0E942A0C0E944B0C0E94F2150E94B7
:100F1000D61508950E94EF0B0E94790708950E944C
:100F20001A0C0E948A07089592959F70963091F04E
:100F300058F4925F9F70923058F4803F19F030F46B
:100F4000883E30F481E008959A5FF4CF843FD1F376
:100F500080E00895883EB0F3813FD1F7F3CFFC01E4
:100F600083819481892B29F08081918189238F3F0E
:100F700011F480E00895808191810E9416090E94F9
:100F800094070895A5E0B0E0E8ECF7E00C9459254B
:100F90002596E2E00C947525A6E0B0E0E2EDF7E0DE
:100FA0000C9459252696E2E00C94752508950E942C
:100FB000D60708950E94D7079093DF018093DE0142
:100FC000089508950E94DA0708952091DE01309176
:100FD000DF01822B932B0E94DA0708952091DE0116
:100FE0003091DF01822393230E94DA070895209134
:100FF000DE013091DF01822793270E94DA070895EE
:101000000E94D60708950E94000808950E940308D0
:101010009093DD018093DC01089590E080E00E94D0
:101020000608089521E030E0A90102C0440F551FD1
:101030008A95E2F7CA010E940608089521E030E08F
:1010400002C0220F331F8A95E2F78091DC01909154
:10105000DD01822B932B0E940608089521E030E0E9
:1010600002C0220F331F8A95E2F7209530958091B8
:10107000DC019091DD01822393230E9406080895EC
:1010800021E030E002C0220F331F8A95E2F7809101
:10109000DC019091DD01822793270E9406080895C4
:1010A0002091DC013091DD01822B932B0E940608F8
:1010B00008952091DC013091DD01822393230E9469
:1010C000060808952091DC013091DD0182279327E5
:1010D0000E94060808950895262F277091E001C008
:1010E000990F2A95EAF723E0769567952A95E1F717
:1010F000660F771F660F771FFA01E60FF71F50E0A4
:1011000040E0682F70E08191DF0111979B01042E70
:1011100002C0369527950A94E2F721702195282779
:10112000292328272C934F5F5F4F4430510559F7EF
:101130000895A82FA77023E0969587952A95E1F743
:10114000880F991F880F991FFB01E80FF91F50E0C6
:1011500040E080E0219130E00A2E02C036952795CC
:101160000A94E2F721703327042E01C0220F0A945B
:10117000EAF7822B4F5F5F4F4430510559F70895CE
:10118000262F983070F4853060F4682F70E085E089
:10119000989F600D711D112448EC51E0822F0E9430
:1011A0006C080895292F983068F4853058F490E041
:1011B00068EC71E035E0239F800D911D11240E94A1
:1011C0009908089580E00895B0E0A0E0EAEEF8E024
:1011D0000C9452257C010091DC011091DD0180917D
:1011E000DE019091DF01082B192BCFE0D0E0CC2459
:1011F000C394D12CBC2EC6010C2E02C0880F991F9F
:101200000A94E2F780239123892B49F4219790F7E0
:10121000B12C8B2DCDB7DEB7E9E00C946E25B7016C
:101220008C2F0E945C0F019789F3F3CFCF93DF934C
:10123000EC010E94E408BE010E945C0FDF91CF9197
:1012400008951F93CF93DF93EB019091C7019923EA
:1012500039F0CB010E941609DF91CF911F910895BB
:10126000882369F0CB010E94E408182F682FCE0173
:101270000E94C008BE01812F0E945C0FEDCFCB0100
:101280000E94D208182FF6CF1F93CF93DF93C091FF
:10129000E00116E08091E1018C1304C0DF91CF9151
:1012A0001F910895D0E01C9FF0011D9FF00D1124A7
:1012B000EE51FE4F4081518162817381848195811D
:1012C0000E94CC072196C770E5CF40911202509141
:1012D0001302609114027091150280911602909190
:1012E00017020E94CC0708951F93CF93DF9380913C
:1012F0001702807F09F049C080911402882309F405
:1013000044C08091E001C091E101609112027091AE
:101310001302A0911502B0911602D62FD72316E022
:10132000C81799F190E0109711F0DF3F19F401967A
:101330008770F6CF189F9001199F300D1124F90185
:10134000EE51FE4F41814713F2CF40814613EFCF5C
:1013500042814111ECCF438154814A1B5B0B483CD5
:10136000510528F7809117028F70806180931702D2
:10137000F901E951FE4F80818F708061808382E1A5
:1013800092E00E9441070E944409DF91CF911F9192
:101390000895A1E1B0E0EFECF9E00C9451258C0147
:1013A00085E0F801DE011D9601900D928A95E1F726
:1013B000F801E28082E1C82E82E0D82E6091150209
:1013C000709116026115710509F44EC190911202D7
:1013D00020911302892F82238F3F09F445C1408158
:1013E0005181A380B480F0901402F501E61BF70B45
:1013F000FF2009F4EAC080911702382F307FE83CC3
:10140000F10508F0A3C031116DC0FE2C251316C0E4
:10141000941314C0E11012C08F7080618093170282
:101420000E946509C6010E94410780911702F801D8
:1014300085838F2D6196EAE00C946D25A114B1048B
:1014400029F0842F85238F3F09F027C180E0F82FF2
:10145000F170DF2E80FF3CC08091E0012091E1011E
:1014600036E0821315C04D875E878D859E850E946C
:101470001609292F22952F702230F0F0243018F50C
:101480009F70F1F0F8019581907FD1F4D12C1EC0AE
:1014900090E0389FF001399FF00D1124EE51FE4F7E
:1014A0006181651306C06081641303C06281E61226
:1014B0000FC001968770D5CF9F7011F0882331F34C
:1014C000805E883018F3C8010E944107FD2CB1CF1F
:1014D000EE2009F4AECF809117028160809317024D
:1014E000F12CA7CF251306C0941304C0F801EE20F9
:1014F00009F487C0C8010E94AF07882319F1EE20C4
:1015000009F180911702803270F02091120230911F
:10151000130238872F831986BB86AA868C87CE0153
:1015200007960E94410786E0F801A2E1B2E001902F
:101530000D928A95E1F70E9474090E946509FF24C3
:10154000F39477CFC8010E944107F9CF311113C03E
:101550007A2DB98AA88A6E2D89890E94C20782E1F4
:1015600092E00E94410786E0F60111928A95E9F720
:101570000E946509B5CF25130FC094130DC0E1106B
:101580000BC0F8018583C8010E94410786E0F6017F
:1015900011928A95E9F74DCFC8010E94AF078823C1
:1015A00089F2EE2079F280911702803208F4BBCFE5
:1015B00020911202309113023A8329831B82BD824B
:1015C000AC828E83CE010196ACCFE83CF10508F0E9
:1015D0003EC0FE2CEE2009F4B5CF25132AC094138B
:1015E00028C08091170280FD1BC0982F907FC1F00A
:1015F000F8018583903F31F0982F907F905F8F7036
:10160000892B8583C8010E94410786E0F801A2E189
:10161000B2E001900D928A95E1F70E94650909CF29
:1016200086E0F801A2E1B2E001900D928A95E1F71F
:1016300000CFC8010E94AF07811175CF80911702BA
:10164000816080931702C8010E944107F2CE7A2D73
:10165000B98AA88A6E2D89890E94C20786E0F601A0
:1016600011928A95E9F7D9CFEE2009F46BCFC80122
:101670000E94AF07F82E882309F464CF86E0F801B2
:10168000A2E1B2E001900D928A95E1F782E192E049
:101690000E9473040E947409C0CF81E08E25D7CECA
:1016A000ACE0B0E0E6E5FBE00C9458254F835887AA
:1016B00069877A878B879C87CE0107960E94C90924
:1016C000882369F08A859B85892B39F04F8158855D
:1016D000842F85238F3F09F06BC016E05FC086E042
:1016E000FE013796DE01119601900D928A95E1F781
:1016F0008A859B85892B89F388859F8189238F3FE4
:1017000061F32091E10130E0C901019687709927CA
:101710004091E0014817190671F40E948F0710925A
:10172000E1011092E00186E0E2E1F2E0DF011D92CA
:101730008A95E9F7D2CF96E0929FD001939FB00DA2
:101740001124AE51BE4FFE01319601900D929A9533
:10175000E1F78093E1010E944409BFCF819FC0015E
:1017600011248E519E4F0E94C9098823E9F0E0910F
:10177000E0011E9FF0011124EE51FE4F4081518186
:1017800062817381848195810E94CC078091E00100
:1017900090E00196877099278093E0018091E001A5
:1017A0009091E1018913DACF2C96E3E00C94742533
:1017B00069857A858B859C850E94CC078ECF682FA2
:1017C00080910001909101010E945F1D0895682F92
:1017D00080910001909101010E94621D0895809105
:1017E0000001909101010E94651D089580912002E1
:1017F0008595859585950895809120028770089537
:1018000090912002977081E009F480E00895809122
:101810002B02089590912B02892B80932B0208951F
:10182000809590912B02982390932B02089580939A
:101830002B02089510922B02089590912A02892B71
:1018400080932A020895809590912A02982390937C
:101850002A02089510922A02089580912102089583
:1018600008950E94300C08959091890292FF08C05B
:1018700090912102981721F0809321020E94310C4F
:10188000089580912102882329F01092210280E09E
:101890000E94310C0895CF93DF93E0910001F09105
:1018A000010180912B028083E0910001F091010100
:1018B000808190912A02892B808390912102992323
:1018C00081F0E0910001F09101018081892B8083FA
:1018D00080910001909101010E94171D81110E94C9
:1018E000410CC0910001D091010148E050E068E155
:1018F00072E0CE010E949425892B59F088E0FE0108
:10190000A8E1B2E001900D928A95E1F7CE010E9424
:10191000B41CDF91CF91089508950E948C0C089516
:101920009091890292FF11C098E0899F9001112443
:10193000622B609320020E941E08809120028595F0
:10194000859585950E948D0C08950E941E08089526
:101950001092200280E00E948D0C08959091200248
:101960008095892380932002282F277091F4282FB7
:10197000082E000C330B9217130659F09091890230
:1019800092FF07C08595859585950E942E080E9437
:10199000A80C08959091890292FB222720F928171C
:1019A00069F080FB92F9909389028091880290916E
:1019B00089020E94120D82E00E94AE0C089580916F
:1019C000890282FB882780F991E089270E94CA0C4E
:1019D000089581E00E94CA0C089580E00E94CA0C1C
:1019E00008956FEF7FEF90E080E00E94D625089584
:1019F00090E080E00E94B22521E0873E9E4F09F0F2
:101A000020E0822F089582E090E00E94AA250895A8
:101A100083E090E00E94AA25089584E090E00E946F
:101A2000B2250895BC0184E090E00E94D625089577
:101A3000AB01BC018FE090E00E94CA250895AB0184
:101A4000BC0183E190E00E94CA25089560E070E047
:101A5000CB010E941F0D089560E070E0CB010E9451
:101A6000180D0E94260D089567EE7EEF90E080E04D
:101A70000E94D62560E082E090E00E94B82560E0F8
:101A800083E090E00E94B8251092DF011092DE0101
:101A900060E074E184E090E00E94D62560E086E09A
:101AA00090E00E94B8256FEF87E090E00E94B82593
:101AB00040E050E0BA0188E090E00E94CA2560E072
:101AC0008DE090E00E94B82540E050E0BA0188E146
:101AD00090E00E94CA2560E087E190E00E94B8256E
:101AE00040E050E0BA018CE190E00E94CA2570E02D
:101AF00060E080E290E00E94D62540E050E0BA012C
:101B000088E190E00E94CA250E942C0D08950E9451
:101B1000340D08958EE090E00E94AA2591E0811195
:101B200001C090E0892F0895682F8EE090E00E9418
:101B3000B82508950E94271E60933A0270933B02D5
:101B400080933C0290933D0260933602709337027B
:101B500080933802909339020895089508950E9461
:101B6000AE0D089508950E94B20D089586E890E1A3
:101B70000E94931C0E94AD0D0E94AF0D08950E941B
:101B800070120895089508950E94C20D0E94C30D19
:101B900008950E94AF100E9412040E9486170895B3
:101BA0000E94121E0E9446100E9488120E949D11DF
:101BB0000E94C90D0E9410170E9498120E94B30D36
:101BC0000895AAE0B0E0E7EEFDE00C9451250E94F4
:101BD000F1118EE2A82E82E0B82E750110E0F70117
:101BE00001917F01812F0E94D5101F5F183009F4E9
:101BF00040C00817A1F380913E0281FD0E94DB10D6
:101C00000E94BF0DC82E10E0812F0E94D510082F12
:101C1000F50181915F01081731F1F12CEE24E39475
:101C2000D02ED8268D2D8E21B1F0CC20A1F0FE82B1
:101C30001F8391E0802F8E2109F490E098870E9405
:101C40001B1E8160782F9A8789874E815F81688506
:101C50008A850E943E04F394EE0CF5E0FF12E2CF79
:101C6000F501319700831F5F183071F60E949A0DBD
:101C700020C00813C0CF0E941B1E8C0180912C0233
:101C800090912D0208171907A1F08FEF89838A839D
:101C90001B820E941B1E8160782F9D838C8349814B
:101CA0005A816B818D810E943E0410932D02009316
:101CB0002C020E9470120E9414160E9425042A967B
:101CC000EAE00C946D25CF93DF930E94610FEC0145
:101CD000811520E59207D0F5811530E4930708F0CF
:101CE00086C0803E910518F58D3C910508F07DC0B9
:101CF000883A910570F4853A910508F06EC08130FC
:101D0000910501F10097F1F00497E0F4D0E0C0E014
:101D100019C0813C9105D0F7C85AD0E0CC0FDD1F27
:101D2000C757DE4F0990D881C02DD4640BC08115F0
:101D3000904208F0A8C0C11581E0D80718F4C83E49
:101D4000D10520F7CE01DF91CF910895803622E5AD
:101D5000920710F5803432E5930708F052C08032C4
:101D6000924508F047C0C11582E5D80708F47DC048
:101D70002C2F2695269540E2249F900111248C2F2C
:101D80008370C1E0D0E002C0CC0FDD1F8A95E2F77E
:101D9000C22BD32BDD68D6CF803A22E5920760F4C0
:101DA000803832E5930708F441C0CF71D0E0DC2FD2
:101DB000CC27C46FD06AC6CF803C42E5940708F4B4
:101DC00049C0C03E82E5D80708F0A0CFDC2FCC2761
:101DD000CC27DF71C06FD06AB5CFC55AD0E0C554EB
:101DE000DE4FC881D0E0D064ADCFD065ABCFDF701F
:101DF000D06AA8CFCF71D0E0DC2FCC27C16FD06ADA
:101E0000A1CF282F26952695277080E2289F900144
:101E100011248C2F8370C1E0D0E002C0CC0FDD1FF5
:101E20008A95E2F7C22BD32BDC688CCF282F26951E
:101E30002695277040E2249F900111248370C1E011
:101E4000D0E002C0CC0FDD1F8A95E2F7C22BD32B66
:101E5000DA6878CF8F710E940310C82FD0E0DC2F92
:101E6000CC27CC27DF71D0626DCF8C2F8F710E9471
:101E7000031035E0D695C7953A95E1F7CF709C2FC2
:101E8000EC01D0695FCF8D2F8F710E94031090E01D
:101E9000982F882788279F719C012C2BE901E3CF7D
:101EA000462F783030F4653020F4672F0E949A0274
:101EB000089590E080E008950E94500F0E94630E04
:101EC000089582389105B9F1B0F48133910509F490
:101ED0007DC048F48932910509F46DC08A329105BC
:101EE00009F47BC008958533910509F45FC08933F7
:101EF000910509F10895833E9105D9F138F4803EAA
:101F0000910529F1823E910579F10895863E91056A
:101F1000D9F1873E910509F43EC0843E910541F513
:101F20002091890221FF24C08091880284FD19C07C
:101F300087EE90E0089520918802237009F05AC03E
:101F40002091890223FF14C089E290E00895209136
:101F5000880220FD38C03091890230FF09C024FF7B
:101F600043C090E080E008952091880222FDF7CFE1
:101F700008952091880222FD3AC03091890230FDF7
:101F800039C024FFF5CFEDCF2091880223FFF0CF99
:101F900024FDE7CFCDCF2091880223FD2EC03091C4
:101FA000890231FFEECF84EE90E0089520918802FF
:101FB00025FFDECFC9CF2091880225FD21C02091C9
:101FC000890223FFD5CF89E390E0D2CF2091880208
:101FD00026FFCECF8AE290E008952091880226FF66
:101FE000C7CF81E390E0089583EE90E0089582EEFC
:101FF00090E0089580EE90E0089586EE90E00895D8
:1020000085E390E008959091880292FF06C0282F02
:1020100028712830F9F4877F846093FF06C0282F49
:1020200028712831F1F4877E84612091890220FF94
:1020300006C0382F38713830D9F4877F816021FF8E
:1020400006C0282F28712831D1F4877E816194FD44
:10205000877E0895282F24712430F9F68B7F8860BD
:10206000DCCF282F2471243101F78B7E8861DDCFEE
:10207000382F3171313019F78E7F8860E0CF282FEB
:102080002171213121F78E7E8861E1CF1092840287
:102090001092850210928602109287020895CF92C4
:1020A000DF92EF92FF926B017C010E94701281110E
:1020B0000EC00E94271EC61AD70AE80AF90AC09263
:1020C0008402D0928502E0928602F0928702FF900D
:1020D000EF90DF90CF9008950F931F930E9470129E
:1020E000882329F00E94271E1F910F9108950E94B6
:1020F000271E009184021091850220918602309162
:102100008702600F711F821F931FEECF80E008953A
:102110000E94F10C0895CF930E94F1118FE39CE986
:102120000197F1F700C000000E94F1110E946D12AA
:10213000C4E08111C0E08C2F0E94D51090E002C055
:1021400095958795CA95E2F780FF04C00E94881094
:102150000E94821ECF9108950E948B1008950E94C4
:10216000F80C811102C00E94870D0E94030D80931C
:102170003E020E940D0D90938902809388020E9476
:10218000AC100E94080D90E00E94E2078091DC01F3
:102190009091DD010E940308089508950E94CD10DA
:1021A000089508950E94D1100895E82FF0E0ED56AB
:1021B000FD4F80810895089508950E94DC100895D0
:1021C000EF92FF921F93CF93DF9300D000D0CDB753
:1021D000DEB70E947012182F60919B02882309F4C9
:1021E00047C019821A821B821C82862F90E09E01B2
:1021F0002F5F3F4F7901B9018D569D4F0E94A61266
:102200008823E9F080918A0290E044E050E0B70131
:102210008D569D4F0E94942521E020933F02892BEB
:10222000C9F410E00E947A03812F0F900F900F9055
:102230000F90DF91CF911F91FF90EF9008958091C3
:102240003F02882371F384E0F70111928A95E9F740
:1022500010923F02E0918A02F0E0ED56FD4F898135
:102260009A81AB81BC8180839183A283B383DACFCF
:1022700070E06D567D4F80918A0290E08D569D4FA3
:102280000E942D130E94DD10CFCF1F93CF93DF93B9
:1022900022E031E0C1E0D0E0D90150E040E08D9192
:1022A0008F3F91F0E82FE295EF70F0E011A18F7071
:1022B000BE0101C0660F8A95EAF7962F909591238B
:1022C00091A382A1862B82A34F5F5F4F45305105BA
:1022D00031F72B5F3F4F81E026313807E9F6DF9178
:1022E000CF911F910895CF93DF93AC01A62FB0E05B
:1022F00085E0689FF0011124EE5FFE4F75E081E0FC
:1023000060E091919F3F81F0C92FC295CF70D0E0DE
:1023100028A130E09F7002C0359527959A95E2F785
:10232000982F20FD90E0692B880F715051F7A40F72
:10233000B51F6C93DF91CF910895A4E1B0E0E3EA7B
:10234000F1E10C94592580911601811126C084E198
:10235000E0E4F1E0DE01119601900D928A95E1F73B
:10236000FE013196A2E0B1E0CE01459620812C938A
:10237000218111962C931197228112962C931297FA
:10238000238113962C931397248114962C931497DE
:10239000359615968E179F0749F78091160194E0A0
:1023A000811190E090939B0284E0891B80938A02C4
:1023B0000E94451188E0E3E9F2E0DF01982F1D92C9
:1023C0009A95E9F7EBE8F2E0DF011D928A95E9F7CB
:1023D00084E00E942F120E9477036496E2E00C943E
:1023E0007525A8E0B0E0E7EFF1E10C9456258E01E9
:1023F0000F5F1F4F88E0F80111928A95E9F7F12CE1
:102400006F2DC8010E947311F394F4E0FF12F8CF0E
:1024100048E050E0B8018BE892E00E94942521E06A
:10242000009709F420E0892B41F088E0F801ABE83F
:10243000B2E001900D928A95E1F760919B0270E005
:102440006D567D4F44E08BE892E00E943012182FC9
:102450000E94E010812B2896E5E00C9472250895E7
:10246000CF92DF92EF92FF920F931F93CF936C0165
:102470007B01042F222349F081E0809342020E94D5
:102480001B1E9093410280934002C0914202C111F1
:102490000AC0C0E08C2FCF911F910F91FF90EF9059
:1024A000DF90CF90089580914002909141020E9468
:1024B000331E059770F310E0A801B601C7010E9412
:1024C0009425892B41F0A801B601C7010E94A125DE
:1024D00010924202DFCFC0E0FBCF0E948A0D089528
:1024E00080914502811107C00E942225882351F066
:1024F00081E08093450281E090914502913009F09E
:1025000080E0089582E0809345020E941D25F3CF6C
:102510000E94F80C811102C00E94870D0E946D126A
:10252000809316010E94701281110E94DC1208959E
:102530000E947012811102C00E94DF12089581E092
:10254000909146029A3008F080E008950F931F930F
:10255000CF93DF93EC018B01809146028A30B8F46F
:10256000B801CE010E942A13C82F811122C0809188
:1025700046028F3FB9F40E941B1E90934402809341
:1025800043028C2FDF91CF911F910F91089580917D
:102590004302909144020E94331E843F914000F711
:1025A000C0E0EFCF8F5F809346028A3020F7C1E012
:1025B000E8CF10924602E5CF0E94311B08950E9499
:1025C000341B0895B0E0A0E0E8EEF2E10C9454254D
:1025D0007901C82F880FDD0B41155105A9F0FE01C7
:1025E00093E0EE0FFF1F9A95E1F7E95EFE4F8181C0
:1025F0009281895B9D4F208130E04217530708F498
:102600009A01A9010E94A125CE010E941D1CD82E6D
:102610008823D1F001151105B9F083E0CC0FDD1F3F
:102620008A95E1F7FE01E95EFE4F438150E0041711
:10263000150708F4A801C95EDE4F6C817D81695BD6
:102640007D4FC7010E94A1258D2DCDB7DEB7E7E0F4
:102650000C9470250E94241408950E943B14089540
:10266000A4E0B0E0E6E3F3E10C94572560915C024E
:1026700070915D0280915E0290915F020E94421E05
:1026800011E0643671058105910518F10E946C1006
:102690006E5F7F4F8F4F9F4F69837A838B839C83BD
:1026A00010E000E030E020E044E050E0BE016F5F69
:1026B0007F4F82E00E94E212182F882351F00E947F
:1026C000271E60935C0270935D0280935E0290937C
:1026D0005F02812F2496E4E00C947325B0E0A0E023
:1026E000E4E7F3E10C9451257C015B016A010E944F
:1026F0009F1201E010E0882311F00AE010E0C1E031
:10270000D0E0B501C701F6010995811104C02196F9
:102710000C171D072CF4CDB7DEB7EAE00C946D253D
:10272000CC9F9001CD9F300D300D112490E080E0C2
:1027300045E34A95F1F70000019682179307C1F728
:10274000E0CFA5E0B0E0E7EAF3E10C9451255B01AE
:10275000E090BE01F090BF0101E010E09E012B5F10
:102760003F4F50E040E070E060E080E00E94E21205
:10277000182F882309F44BC067018FEFC81AD80AB5
:10278000609158027091590280915A0290915B02B7
:102790000E94421E643671058105910580F104E0B6
:1027A00010E09E012F5F3F4F50E040E070E060E09E
:1027B00081E00E94E212F82E64E070E0C6010E94FF
:1027C000111711E09D81981310E01F2159F10E940B
:1027D000271E609358027093590280935A02909377
:1027E0005B0289819A81AB81BC8180935402909372
:1027F0005502A0935602B093570211E013C064E053
:1028000070E0C6010E9411179D818913C8CFF7019E
:1028100081819281A381B48189839A83AB83BC83B4
:102820001111DFCF8091540290915502A091560270
:10283000B0915702F50180839183A283B383812FE6
:102840002596EAE00C946D250F931F93CF93DF93A9
:10285000EC018B0141EA53E10E946E13882331F0B1
:1028600040E353E1B801CE010E946E13DF91CF9196
:102870001F910F9108950F931F93CF93DF93C091F2
:10288000BE01D091BF01CE01019624E0FB01DC0125
:1028900001900D922A95E1F764E070E00E94111713
:1028A00088836D817E818F8198850091500210917F
:1028B0005102209152023091530260177107820732
:1028C000930751F06093500270935102809352022B
:1028D000909353020E944F10DF91CF911F910F915F
:1028E00008950E94F81F0E94D00D0E9405200895AF
:1028F0000E940A200E94E10D0E94242008950E9457
:10290000B41D0E94DE1F0E94B60D0E9471140E9429
:1029100078140E94C40DFBCF8091660280FF0DC029
:102920006091340170E0660F771F6038710570F5B3
:102930006115710569F1862F089581FF07C06091C7
:10294000340184E0689FB0011124EFCF609134011D
:1029500082FD0AC0809165028823A9F0209133018D
:1029600060913401821710F088E0ECCF869FC0019F
:10297000112433E0880F991F3A95E1F7622F70E038
:102980000E942F25D2CF68E070E0D5CF8FE7089561
:1029900081E008958091660280FF0CC06091300153
:1029A00070E075956795759567956115710549F1A5
:1029B000862F089581FF06C06091300170E0759503
:1029C0006795F3CF6091300182FD0BC09091640256
:1029D0009923A1F060912F0180913001961738F072
:1029E000682F70E06038710500F38FE70895899FC4
:1029F000C001112470E00E942F25F4CF61E070E047
:102A0000D7CF81E008958D3C31F40E948C148195DC
:102A100080936A0208958E3C19F40E948C14F8CFBA
:102A20008F3C31F40E948C14819580936902089543
:102A3000803D19F40E948C14F8CF893D29F40E943E
:102A4000CA1480936B0208958A3D21F40E94CA142F
:102A50008195F7CF8B3D31F40E94CA148195809304
:102A60006C0208958C3D19F40E94CA14F8CF9FE2BD
:102A7000980F983070F4815D990B21E030E001C02F
:102A8000220F8A95EAF780916802822B8093680270
:102A900008958D3D31F480916602816080936602D5
:102AA00008958E3D21F4809166028260F7CF8F3DBC
:102AB000B9F7809166028460F1CF409169028D3C44
:102AC00059F480916A0287FF0DC010926A02411189
:102AD0000BC01092650208C08E3C81F480916A029E
:102AE00018169CF3442381F080916B0290916C0244
:102AF000892B09F05AC01092640208958F3C49F462
:102B000047FFF0CF1092690280916A028111ECCFE9
:102B1000E0CF803D19F41416ACF3E4CF90916B0232
:102B2000893D29F41916F4F610926B02DBCF8A3D29
:102B300019F497FFD7CFF8CF90916C028B3D29F411
:102B400097FFD0CF10926C02CDCF8C3D19F419169F
:102B5000CCF3C8CF9FE2980F983090F4815D990B29
:102B600021E030E0B90102C0660F771F8A95E2F7D5
:102B7000CB01809590916802892380936802B2CF3F
:102B80008D3D31F4809166028E7F80936602AACFDC
:102B90008E3D21F4809166028D7FF7CF8F3D09F045
:102BA000A1CF809166028B7FF0CF08950E941B1EFB
:102BB0009C019091690280916A02982B21F03093D8
:102BC00063022093620290916B0280916C02982BB9
:102BD00021F0309361022093600287E692E00E9428
:102BE000BF1C089586E0E7E6F2E0DF011D928A95BA
:102BF000E9F710926502109264021092660208953D
:102C0000FC01828181110EC0838181110BC08481FE
:102C1000811108C091E08581811101C090E0892F68
:102C20008170089581E0FCCFA6E0B0E0EAE1F6E132
:102C30000C94582586E0E7E6F2E0DE01119601905B
:102C40000D928A95E1F71092690210926A02109231
:102C50006B0210926C028B819C81892B89F0809190
:102C60006202909163020E94331EAC019091650252
:102C70009923C9F1809135018417150608F440C0E5
:102C80008D819E81892B91F08091600290916102EB
:102C90000E94331EAC0190916402992309F471C023
:102CA000809131018417150608F479C0BE016F5F69
:102CB0007F4F87E692E00E946C1D811105C087E678
:102CC00092E00E94001681110E94D61586E0FE0156
:102CD0003196A7E6B2E001900D928A95E1F726962B
:102CE000E3E00C947425209136018AE0289F90013E
:102CF00011242417350720F69F5F9093650202C0C8
:102D00009F3FD1F71B81112359F00E948C149FEF34
:102D100011160CF491E0899F802D11248093690293
:102D20001C81112359F00E948C149FEF11160CF492
:102D300091E0899F802D112480936A02309169026D
:102D4000332309F49DCF20916A02222309F498CFFE
:102D500045EB3403C0011124992359F09093690283
:102D600045EB240390011124332339F030936A0298
:102D700087CF81E080936902F3CF81E080936A027C
:102D80007FCF209132018AE0289F900111242417DF
:102D9000350708F08BCF9F5F9093640202C09F3F7E
:102DA000D1F71D81112359F00E94CA149FEF11160B
:102DB0000CF491E0899F802D112480936B021E8179
:102DC000112359F00E94CA149FEF11160CF491E0E0
:102DD000899F802D112480936C0230916B023323E4
:102DE00009F464CF20916C02222309F45FCF45EBF4
:102DF0003403C0011124992359F090936B0245EBE1
:102E0000240390011124332339F030936C024ECF08
:102E100081E080936B02F3CF81E080936C0246CF18
:102E20000895FC01680F791F8FEF91E3E617F7070C
:102E300009F408952191822728E030E087FF06C039
:102E4000880F892721503109C9F7F0CF880FFACFB1
:102E5000FB012281222341F097FF06C09F77BC012E
:102E600090E080E00E94791881E008950F931F930D
:102E7000CF93DF93EC018B01FB0182818823B1F0BA
:102E80000E94070C8272FE01E053FC47E830F10516
:102E900068F4E650FA4D0C944325811104C081E09A
:102EA00003C08111FCCF8FEF0E949917B801CE01AA
:102EB0000E942817DF91CF911F910F91089580E014
:102EC0000E94A117F3CF81E0FBCF82E0F9CF83E02E
:102ED000F7CF84E0F5CF85E0F3CF90919D0292305B
:102EE00071F48A3050F490E009966AE070E00E9434
:102EF0002F25875A0E941B0508958650FBCF0E94FC
:102F0000FA19089508950E94821708958CE090E0C0
:102F10000E94AA25482F50E070E060E040939D0297
:102F200050939E0260939F027093A0020E948317A9
:102F30000895089560919D028CE090E00E94B8256C
:102F40000895CF93C82F80939D020E949A178C2FCB
:102F50000E948317CF9108950E94B11C80939C0218
:102F600090919D02913029F481FF03C089E30E9472
:102F70001B050E94070C8093A1020E941A0C0E945C
:102F80002A0C80919D02823021F158F48823C1F0EF
:102F90008130D1F08FE39CE90197F1F700C0000088
:102FA0000895843051F18530A9F78BE191E00E94BA
:102FB0001E0385E290E00E941E0388E290E006C0B6
:102FC00082EE0E948304E6CF88E193E00E941E0314
:102FD000E1CF80919C0280FD03C083E50E941B0528
:102FE00082EE0E9483048FE39CE90197F1F700C011
:102FF000000087E50E941B05CDCF86EE0E941B05D1
:1030000088E1F8CF80919D02823011F148F4882345
:1030100081F0813091F08091A1020E94170C0895F7
:103020008430F9F08530B9F788E290E00E941E0301
:10303000F2CF82EE0E94D004EECF8CE20E941B05FC
:1030400080919C0281FFE7CF89E30E941B05E3CFBB
:1030500082EE0E94D00480919C0280FDDCCF83E54B
:10306000F4CF88E2F2CF8F929F92AF92BF92EF920D
:10307000FF920F931F93CF93DF934B015C01D0918D
:103080009D028CE1E82EF12C07E010E021E0D50153
:10309000C4010E2C04C0B695A795979587950A9400
:1030A000D2F7C82FCF70222339F0D43051F4CA3070
:1030B00040F080E00E946D178C2F0E946D1720E079
:1030C00005C0C111F9CF04301105B4F30150110945
:1030D00084E0E81AF1080F3F1007C9F6DF91CF919D
:1030E0001F910F91FF90EF90BF90AF909F908F90A6
:1030F0000895CF92DF92EF92FF926B017C01C11491
:10310000D10481E1E806F104A0F5C114D10481E005
:10311000E806F10420F080919D02823051F10E9476
:10312000AC17C114D10481E0E806F10438F18091B4
:103130009D02811123C081E0E81AF108C701B601A0
:103140002AE096958795779567952A95D1F77852D5
:103150008F4F9F4F0E94331883E0D822EE24FF2424
:10316000C701B60174528F4F9F4F0E9433180E94BF
:103170000218FF90EF90DF90CF900895C701B6013D
:10318000F4CFCF93DF93EC01FB018281882309F414
:10319000D2C09E0130572332310508F0B2C00E94E0
:1031A0000D0D9093890280938802FE01E150F04753
:1031B000E232F10520F4EE5FF94D0C944325809145
:1031C000880281608093880293C080918902886020
:1031D000809389028DC0809188028260F3CF8091B4
:1031E00088028460EFCF809188028860EBCF809165
:1031F00089028160EDCF809189028260E9CF809160
:1032000088028061DFCF809188028062DBCF80916D
:1032100088028064D7CF0E948F07809188028068DF
:10322000D1CF809188028C60CDCF8091890283605C
:10323000CFCF809188028E7FC5CF80918902877F12
:10324000C7CF809188028D7FBDCF809188028B7F10
:10325000B9CF80918802877FB5CF809189028E7F18
:10326000B7CF809189028D7FB3CF809188028F7E06
:10327000A9CF809188028F7DA5CF809188028F7B16
:10328000A1CF0E948F07809188028F779BCF80917A
:103290008802837F97CF809189028C7F99CF80911C
:1032A000880282FB992790F921E0922790FB82F90E
:1032B00090FB83F987CF80918902982F9095917028
:1032C0008E7F892B90FB81F983CF90918802892F83
:1032D0008F7B96FF806476CF0E948F079091880243
:1032E000892F97FB87F980586DCF81E00E94940D5C
:1032F00080918802909189020E94120D0E948F078E
:1033000080E0DF91CF91089580E0F0CF9091880226
:10331000892F8F7E94FF806155CF90918802892FED
:103320008E7F90FF81604ECF90918902892F877F99
:1033300093FF88604DCF81E0E4CFB0E0A0E0E3EA06
:10334000F9E10C945425E82FF0E0E452FD4FD490BD
:10335000282F26952695269530E0F901E458FC4F54
:103360000491877010E0082E02C0159507950A9405
:10337000E2F701701127F901E459FC4FE490F12CB8
:10338000082E02C0F594E7940A94E2F791E0E9224E
:10339000FF24F901E45AFC4FC491D0E002C0D59556
:1033A000C7958A95E2F7C170DD270115110519F05F
:1033B00081EE0E948304E114F10419F086EE0E946C
:1033C00083048D2D0E941B05E114F10419F086EE93
:1033D0000E94D0040115110519F081EE0E94D0045D
:1033E000CD2B19F08CE20E941B05CDB7DEB7E7E0CC
:1033F0000C947025982F9F709A50963020F0805D25
:103400000E949D190895895AFBCFCF93DF93EB015A
:1034100086319C4711F50E94070C9A81992399F0F7
:103420008A7A91E009F490E090936D02811109C0CD
:1034300089E20E94DF0B0E944B0C80E0DF91CF916C
:10344000089585E3F6CF80916D02811104C089E271
:103450000E94E70BF0CF85E3FBCF81E0EFCF0F9326
:103460001F93CF93DF93C42FD22FFC018281882337
:10347000C9F0409370020E941B1E90936F028093CC
:103480006E0280E28C0F883040F4C77081E001C08A
:10349000880FCA95EAF70E942405DF91CF911F910A
:1034A0000F91089510917002141332C080916E0232
:1034B00090916F020E94331E883C910548F5C0E24E
:1034C000CD0F1D17B9F080E2810F883040F41770DE
:1034D00081E001C0880F1A95EAF70E942B05C830D9
:1034E00048F481E09D2F977001C0880F9A95EAF704
:1034F0000E942405802F0E941B05C83070F6D770EB
:1035000081E001C0880FDA95EAF70E942B05C5CF4C
:1035100080E28C0F883008F6C77081E001C0880F08
:10352000CA95EAF7F2CF0F93DB0188519C478730A9
:103530009105A0F5FC01EC5DF94D0C94432506E2E4
:1035400021EE41EE6AE17CE7CD010E942F1A80E076
:103550000F91089507E225EE45EE6BE17CE7F4CF8D
:1035600006E221EE40EE68E17CE7EECF07E225EED1
:1035700044EE69E17CE7E8CF06E221EE42EE6CE141
:103580007CE7E2CF07E225EE46EE6DE17CE7DCCF9B
:1035900008E221E045EE6EE17CE7D6CF12968C91F1
:1035A000882319F010927002D3CF81E0D1CF8EE141
:1035B0004A9B02C08150E1F74A9BFECF08955A987A
:1035C00080E28A95F1F75A9A0895FC013BE03A951A
:1035D000F1F798E020E080E031E040E14A95F1F732
:1035E000880F4A9B02C08160232742E04A95F1F789
:1035F000000040E14A95F1F7915079F790E19A95F2
:10360000F1F799B132E03A95F1F7000040E14A95BF
:10361000F1F792FB992790F992272081920F9083DE
:103620000895A1E0B0E0E7E1FBE10C945525198293
:103630008C017C01E60EF11C0E151F0541F481E0A2
:103640009981911180E02196E6E00C9471250E9409
:10365000D71ACE0101960E94E51AF80181938F01D5
:10366000EBCF529A5A9A089552985A9AEA9AE9E6F2
:10367000F0E080818F7C808308956150770B91E02A
:1036800001C0990F6A95EAF720E031E0911108C076
:10369000222391F05A9A80E28A95F1F75A98089578
:1036A000492F482339F05A9A232740E24A95F1F7E7
:1036B0009695ECCF5A98F9CF5A98EDCFFF920F9389
:1036C0001F93CF93DF93EC018C01060F111DC017E0
:1036D000D10729F4CDB7DEB7E5E00C947225F99057
:1036E0000E94DF1A68E08F2D0E943D1BF0CF1F92D1
:1036F0000F920FB60F9211240F931F932F933F93A6
:103700004F935F936F937F938F939F93AF93BF93E9
:10371000EF93FF93CF93DF930F92CDB7DEB719826C
:103720000E94D71ACE0101960E94E51A082F06952D
:1037300006950695282F22952570902F9570290FB4
:10374000922F937026952695920F982797708981CE
:10375000982B09F05CC0043008F059C080E18A95CC
:10376000F1F75A9A529A82E08A95F1F700C05A9876
:1037700088E0089F80011124D801A95EBE4F1696EB
:10378000ED91FC9117973097A9F06091BE0170916F
:10379000BF0114962D913C911597260F371F119656
:1037A0008D919C911297680F791F13964C911397E6
:1037B0008C910995F801E95EFE4F6381662351F013
:1037C0002091BE013091BF0184819581820F931FAA
:1037D0000E945E1B0E94DF1A80E18A95F1F75A98D9
:1037E00052985A9A80E18A95F1F7F801E95EFE4F06
:1037F0006081662351F02091BE013091BF0181812B
:103800009281820F931F0E94111B0E94D71A0F9062
:10381000DF91CF91FF91EF91BF91AF919F918F91E8
:103820007F916F915F914F913F912F911F910F91D8
:103830000F900FBE0F901F9018950F931F93CF936B
:10384000DF93EC0104970CF04CC0F894529A5A980C
:1038500085E08A95F1F700009C2F969595708C2F46
:103860008570980F892F83709695969523E0CC0FDD
:10387000DD1F2A95E1F7980F8E01092B0E94DF1AB0
:1038800000C068E0802F0E943D1B80E18A95F1F71F
:1038900052985A9A4A9B1EC087E090E04A991CC0F1
:1038A000FE01E95EFE4F63816623F9F02091BE01BF
:1038B0003091BF0184819581820F931F0E94111B5B
:1038C000811113C0529A5A9A7894DF91CF911F9127
:1038D0000F91089500C0DECF019729F4529A5A9AA9
:1038E000789480E0F2CF00C0D9CF0E94D71A80E24E
:1038F0008A95F1F75A98529A80E18A95F1F7C95E54
:10390000DE4F6881662351F02091BE013091BF01E6
:1039100089819A81820F931F0E945E1B0E94DF1A89
:10392000789481E0D2CF9093C1018093C001089533
:10393000909377028093760208950E94701281110D
:1039400003C0809171020895E0917602F0917702B0
:10395000309729F00190F081E02D0995089580E0DD
:1039600008950E949D1C0895E0917602F0917702DF
:10397000309721F00280F381E02D09950895E091C0
:103980007602F0917702309739F022E0DC012C9337
:103990000480F581E02D09950895A3E0B0E0E3ED02
:1039A000FCE10C945925209174023091750228177E
:1039B0003907A1F09093750280937402E09176022A
:1039C000F0917702309751F023E029839B838A831B
:1039D0000680F781E02DCE01019609952396E2E05D
:1039E0000C947525A3E0B0E0E8EFFCE10C945925B8
:1039F000209172023091730228173907A1F0909339
:103A0000730280937202E0917602F0917702309710
:103A100051F024E029839B838A830680F781E02D7F
:103A2000CE01019609952396E2E00C9475259C0140
:103A30002E5F3F4FAC01485F5F4F80E02417350792
:103A400009F40895F90191919F019923B9F38F5FCA
:103A5000F5CF662349F0FC0132960896219126178E
:103A600029F0E817F907D1F780E0089581E008957B
:103A70009C01FC0132969FEF80E04191461751F086
:103A80009F3F19F4411101C0982F8F5F8630A9F72D
:103A90009F3F09F40895290F311D97FD3A95F901CB
:103AA00062830895FC01329608962191261303C083
:103AB000DF0111971C92E817F907B9F708950E94E2
:103AC000381D08950E94521D0895029626E0FC01BB
:103AD00011922A95E9F7089546E050E00E94942556
:103AE00021E0892B09F420E0822F089508950E9497
:103AF000761D0895811106C081E0809378020E94AE
:103B0000771D089582E0F9CF83E0809378020E94C8
:103B1000771D08950E947A1D089581E080937802B0
:103B20000E94771D08950E948D1D0895089508959F
:103B30000E94971D0895089508950E94961D089566
:103B4000CF930E949B1D0E94F1110E949C1DC0E01A
:103B50008C2F0E94D510811105C0CF5FC830C1F7EE
:103B6000CF91089581E0FCCF85B7806885BF85B788
:103B7000806885BF08951F921FB61F9211248F93EE
:103B80009F93AF93BF9380917902811113C080916D
:103B9000A2029091A302A091A402B091A502419625
:103BA000A11DB11D8093A2029093A302A093A40231
:103BB000B093A502BF91AF919F918F911F901FBEAF
:103BC0001F9018958091AA02843031F10E94F2036F
:103BD0001092790288E190E020E40FB6F894A8955D
:103BE000809360000FBE2093600083B7817F846064
:103BF00083BF83B7816083BF7894889583B78E7FB6
:103C000083BF0FB6F894A895809160008861809377
:103C10006000109260000FBE08950E948F070E94FE
:103C2000F703089582E084BD93E095BD9AEF97BDB8
:103C300080936E0008952FB7F8948091A20290911E
:103C4000A302A091A402B091A5022FBF08952FB79F
:103C5000F8946091A2027091A3028091A4029091C5
:103C6000A5022FBF08959C014FB7F8948091A2023E
:103C70009091A302A091A402B091A5024FBF821B14
:103C8000930B0895CF92DF92EF92FF922FB7F894A3
:103C9000C090A202D090A302E090A402F090A502EE
:103CA0002FBFA7019601261B370B480B590BCA01E2
:103CB000B901FF90EF90DF90CF90089578941F9214
:103CC0001FB61F9211248F939F93AF93BF93809140
:103CD000A2029091A302A091A402B091A502019624
:103CE000A11DB11D8093A2029093A302A093A402F0
:103CF000B093A502BF91AF919F918F911F901FBE6E
:103D00001F90189587E797E7909301088093000824
:103D100088E19AE00FB6F894A895809360000FBEF2
:103D200090936000FFCF88E19AE00FB6F894A895D1
:103D3000809360000FBE90936000FFCF809182025D
:103D400008959B01BA019091AA029430E9F48F7012
:103D50008093E9009FEF8091E800915085FD06C0B7
:103D600085ED8A95F1F700009111F5CF8091E8007B
:103D700085FF0AC050E040E0C9010E949620809172
:103D8000E8008E778093E800089543E050E0BC019E
:103D900082E00E94A11E089546E050E0BC0182E04E
:103DA0000E94A11E0895CF93DF93EC0148E050E0FC
:103DB000BC0181E00E94A11E88E0FE01AAE7B2E0FA
:103DC00001900D928A95E1F7DF91CF91089580914E
:103DD000A902811109C00E9426220E94832280919B
:103DE000E20084608093E20008951092A902089591
:103DF0000E948D1D08956091A60281E0611101C0AD
:103E000080E00E94841D08959091AA0281E0943080
:103E100009F080E06091A6020E948A1D089542E0A8
:103E200061EC81E00E94A22142E261EC82E00E940A
:103E3000A2219091AA0281E0943009F080E0609183
:103E4000A6020E947A1D08958091AC02833009F485
:103E500061C030F48130D1F1823009F49EC0089500
:103E60008A3009F48AC08B3009F46FC0893009F0B8
:103E700050C08091AB02813209F04BC08091AF02FB
:103E80009091B002029708F044C08091E800877FCB
:103E90008093E8008091E80082FF37C09091F300A2
:103EA0008091F200029731F48091F100813011F09D
:103EB000863021F48091F100809382028091E800A5
:103EC0008B778093E8000E94D62123C08091AB02BB
:103ED000813AF9F48091E800877F8093E80080912F
:103EE000AF029091B002892B61F468E08AE792E01A
:103EF00070E00E94E5208091E8008B778093E800D5
:103F0000089560E090E080E0F3CF8091AA028111F3
:103F1000C1CF08958091AB02813AD9F78091AF0269
:103F20009091B002892BA9F78091E800877F809358
:103F3000E8008091E80080FFFCCF80913F018093F2
:103F4000F1008091E8008E77BCCF8091AB02813286
:103F500001F78091AF029091B002892BD1F6809148
:103F6000E800877F8093E8000E94D6218091AD020F
:103F700080933F010E948F0708958091AB028132A8
:103F800041F68091E800877F8093E8000E94D62167
:103F90008091AE028093830208958091AB02813AB2
:103FA00009F0B7CF8091E800877F8093E800809187
:103FB000E80080FFFCCF80918302C1CF84B7877F68
:103FC00084BF0FB6F894A8958091600088618093B3
:103FD0006000109260000FBE80E890E00FB6F89489
:103FE00080936100909361000FBE0E94931D08951D
:103FF0000E9426220E948322E2EEF0E0808184600B
:10400000808378940E940225089587E391E00E94BE
:10401000981C08958091AA02853031F48091AA02FB
:10402000853019F00E940D1E08950E94E21D8091B6
:10403000A802882399F30E94A01D882379F30E9487
:1040400080200E948F07EACF08950E9428200895BB
:10405000292F33272330310519F168F42130310538
:1040600009F444C02230310509F445C090E080E0F5
:1040700030E020E025C02132310549F122323105FE
:10408000A9F780E490E02EE734E061157105C1F0F6
:104090008BE790E023E034E06130710589F0E6CFF2
:1040A00099278130910581F0009729F00297F1F668
:1040B000ECE8F3E002C0E2EBF3E0849190E09F01D2
:1040C000FA01318320830895E8EAF3E0F6CF89E02E
:1040D00090E028EC33E06115710591F389E090E000
:1040E00021EE33E06130710559F3C0CF82E190E0F9
:1040F00021EF33E0E5CF8BE390E026EB33E0E0CF38
:1041000080E189BD82E189BD09B400FEFDCF8091C7
:10411000D8008F7D8093D8008091E00082608093EA
:10412000E0008091E00081FDFCCF0895AF92BF9246
:10413000CF92DF92FF920F931F93CF93DF936C0187
:10414000EB018A010E94F521F82E811123C001158F
:10415000110539F0F80180819181C81BD90BC80E77
:10416000D91EB12CA12C2097A9F08091E80085FDE3
:1041700022C08091E8008E778093E8000115110538
:10418000A1F0F80180819181A80EB91EB182A082B0
:1041900085E0F82E8F2DDF91CF911F910F91FF9029
:1041A000DF90CF90BF90AF9008950E94F5218823B3
:1041B000D1F2F82EEFCFF60181916F018093F100DB
:1041C0002197FFEFAF1ABF0ACECFFC018091B10259
:1041D0009091B20286179707A0F06115710529F436
:1041E0009091E8009E779093E80090E0611571054A
:1041F00051F4911108C08091E80082FF34C080E042
:104200000895BC01F2CF8091AA028823C1F18530C4
:10421000C1F18091E80083FD30C08091E80082FD0B
:10422000EACF8091E80080FFE1CF8091F3002091F8
:10423000F200382F6115710519F02830310558F05A
:1042400091E02830310509F090E02091E8002E77C8
:104250002093E800CBCF81918093F10061507109E8
:104260002F5F3F4FE7CF8091AA02882341F085302E
:1042700041F08091E80083FFBECF81E0089582E0A5
:10428000089583E00895FC018091B1029091B202FB
:1042900086179707A0F06115710529F48091E80051
:1042A0008E778093E80090E06115710551F49111CB
:1042B00008C08091E80082FF35C080E00895BC010D
:1042C000F2CF8091AA028823C9F18530C9F180918B
:1042D000E80083FD31C08091E80082FDEACF809143
:1042E000E80080FFE1CF8091F3002091F200382FA9
:1042F0006115710519F02830310558F091E028302A
:10430000310509F090E08091E8008E778093E80015
:10431000CBCF84918093F1003196615071092F5F6A
:104320003F4FE6CF8091AA02882341F0853041F0CB
:104330008091E80083FFBDCF81E0089582E0089579
:1043400083E00895982F973028F08F708093E900CC
:1043500081E008959093E900242F762F50E098177C
:1043600031F07091EC002091ED005091F00021FDB2
:1043700002C09F5FE8CF3091EB003E7F3093EB00AF
:104380003091ED003D7F3093ED003091EB003160D6
:104390003093EB007093EC002093ED005093F0000D
:1043A0002091EE0027FDE5CF80E008958091AB02DB
:1043B00087FF13C08091E80082FF06C08091E8006B
:1043C0008B778093E80004C08091AA028111F2CF1C
:1043D00008958091AA028823D9F38091E80080FF94
:1043E000F8CF8091E8008E77ECCF2091E4003091F7
:1043F000E50095E6A9012091EC00822F817020FF55
:1044000006C08091E80080FF06C080E008952091FA
:10441000E80022FD1AC08091AA02882389F0853025
:1044200089F08091EB0085FD0FC02091E400309170
:10443000E50042175307F9F29150E1F684E0089540
:1044400082E0089583E0089581E008950E94952216
:104450000E949D22E0EEF0E0808181608083E8EDA3
:10446000F0E080818F77808319BCA7EDB0E08C915C
:104470008E7F8C9380818F7E80831092A902089515
:104480000F931F93CF93DF930E9495220E949D224A
:10449000C8EDD0E088818F778883888180688883A1
:1044A00088818F7D888319BC1092AA021092A6027F
:1044B0001092A8021092A70200EE10E0F80180818D
:1044C0008B7F808388818160888342E060E080E028
:1044D0000E94A221E1EEF0E080818E7F8083E2EEF7
:1044E000F0E0808181608083808188608083F80132
:1044F00080818E7F8083888180618883DF91CF91E6
:104500001F910F910895E8EDF0E080818F7E808308
:10451000E7EDF0E080818160808384E082BF81E00C
:104520008093A9020E9440220895E8EDF0E0808186
:104530008E7F80831092E20008951092DA0010922C
:10454000E10008951F920F920FB60F9211242F933E
:104550003F934F935F936F937F938F939F93AF930B
:10456000BF93EF93FF938091E10082FF0BC0809196
:10457000E20082FF07C08091E1008B7F8093E10021
:104580000E9401258091DA0080FF19C08091D80037
:1045900080FF15C08091DA008E7F8093DA008091D1
:1045A000D90080FF96C080E189BD82E189BD09B450
:1045B00000FEFDCF81E08093AA020E94E71E809159
:1045C000E10080FF19C08091E20080FF15C080915A
:1045D000E2008E7F8093E2008091E2008061809310
:1045E000E2008091D80080628093D80019BC85E0F9
:1045F0008093AA020E94FB1E8091E10084FF2BC0E1
:104600008091E20084FF27C080E189BD82E189BDFD
:1046100089B5982F917080FFFBCF8091D8008F7D56
:104620008093D8008091E1008F7E8093E10080919B
:10463000E2008F7E8093E2008091E20081608093AF
:10464000E2008091A602882309F449C084E08093A7
:10465000AA020E94041F8091E10083FF29C080917B
:10466000E20083FF25C08091E100877F8093E10015
:1046700082E08093AA021092A6028091E1008E7FD0
:104680008093E1008091E2008E7F8093E200809130
:10469000E20080618093E20042E060E080E00E94FE
:1046A000A2218091F00088608093F0000E94F81EA3
:1046B000FF91EF91BF91AF919F918F917F916F91FA
:1046C0005F914F913F912F910F900FBE0F901F90D0
:1046D000189519BC1092AA020E94F51E70CF809105
:1046E000E30087FD93E09093AA02B3CF1F920F924D
:1046F0000FB60F9211242F933F934F935F936F93B5
:104700007F938F939F93AF93BF93CF93DF93EF9359
:10471000FF93D091E900DF708091EC00C82FC17049
:1047200080FDC0E81092E9008091F000877F8093BF
:10473000F00078940E94BA231092E9008091F00072
:1047400088608093F000CD2BCF70C093E900FF917B
:10475000EF91DF91CF91BF91AF919F918F917F9119
:104760006F915F914F913F912F910F900FBE0F90DE
:104770001F901895AAE2B0E0E0ECF3E20C94582503
:104780008BEA92E02091F100FC012193CF01F2E04D
:10479000833B9F07B9F70E94241F8091E80083FFA5
:1047A0001EC18091AB029091AC029A3008F017C103
:1047B000E92FF0E0E55DF94D0C944325803899F040
:1047C000823809F00CC18091AF028F70873008F0F9
:1047D00006C18093E9008091EB0085FB882780F972
:1047E0001092E90006C08091A7029091A802911151
:1047F00082609091E800977F9093E8008093F100A9
:104800001092F1008091E8008E77E5C0882309F4CA
:10481000D3C0823009F0E3C08091AD028111D6C0CF
:104820008091AF028F702FEF280F263008F0D7C08D
:104830008093E9002091EB0020FFC8C0933031F451
:104840008091EB0080628093EB00C0C09091EB0000
:1048500090619093EB0021E030E001C0220F8A9537
:10486000EAF72093EA001092EA008091EB0088605A
:10487000EACF8111B4C01091AD021F778091E3009F
:104880008078812B8093E3008091E800877F80937C
:10489000E8000E94D6218091E80080FFFCCF809143
:1048A000E30080688093E30082E0111183E080934D
:1048B000AA0295C08058823008F091C08091AD0264
:1048C0009091AE028C3D23E09207A1F583E08A83AC
:1048D0008AE289834FB7F894DE01139620E03EE028
:1048E00051E2E32FF0E050935700E49120FF03C022
:1048F000E295EF703F5FEF708E2F90E0EA30C0F0EE
:10490000C7968D939D932F5F243159F74FBF8091A8
:10491000E800877F8093E8006AE270E0CE010196AC
:104920000E94E5208091E8008B778093E80057C0D3
:10493000C096E7CF6091AF027091B002AE014F5FB9
:104940005F4F0E942520BC01892B09F448C090913B
:10495000E800977F9093E80089819A810E94432123
:10496000E1CF8038E1F58091E800877F8093E8000F
:104970008091A6028093F10045CF811130C09091C3
:10498000AD02923060F58091E800877F8093E80067
:104990009093A6020E94D6218091A602882311F04E
:1049A00084E005C08091E30087FDFACF81E0809329
:1049B000AA020E940F1F13C08091AD02813079F4CA
:1049C00081E0933009F080E08093A8021092E90022
:1049D0008091E800877F8093E8000E94D621809133
:1049E000E80083FF0AC08091E800877F8093E80099
:1049F0008091EB0080628093EB00AA96E3E00C9438
:104A000074250895CF938091AA028823A1F0C091C4
:104A1000E900CF709091EC00892F817090FD80E8C3
:104A2000C82B1092E9008091E80083FD0E94BA2310
:104A3000CF70C093E900CF9108950E942622109272
:104A4000AA020895E8EDF0E08081806180838AE128
:104A50008A95F1F700C08091D9008170089597FB85
:104A6000072E16F4009407D077FD09D00E94802508
:104A700007FC05D03EF4909581959F4F0895709561
:104A800061957F4F0895EE0FFF1F0590F491E02D83
:104A900009942F923F924F925F926F927F928F92E2
:104AA0009F92AF92BF92CF92DF92EF92FF920F93BD
:104AB0001F93CF93DF93CDB7DEB7CA1BDB0B0FB6C7
:104AC000F894DEBF0FBECDBF09942A883988488884
:104AD0005F846E847D848C849B84AA84B984C8841A
:104AE000DF80EE80FD800C811B81AA81B981CE0F11
:104AF000D11D0FB6F894DEBF0FBECDBFED010895F6
:104B0000AA1BBB1B51E107C0AA1FBB1FA617B707F3
:104B100010F0A61BB70B881F991F5A95A9F780950F
:104B20009095BC01CD010895FB01DC0104C08D917D
:104B30000190801921F441505040C8F7881B990B0F
:104B40000895FB01DC0102C001900D9241505040DC
:104B5000D8F70895F999FECF92BD81BDF89A9927AB
:104B600080B50895A8E1B0E042E050E00C94DE2565
:104B7000262FF999FECF92BD81BDF89A019700B416
:104B8000021639F01FBA20BD0FB6F894FA9AF99AB6
:104B90000FBE08950396272F0E94B9250E94B825BD
:104BA000252F0E94B925242F0C94B9250196272F73
:104BB0000E94B9250C94B825DC01CB01FC01F999C0
:104BC000FECF06C0F2BDE1BDF89A319600B40D9259
:104BD00041505040B8F70895F894FFCF6D056D052A
:104BE0009E059E0530064C06CD05CD055106C20634
:104BF000D106D1064D1751175F1763176517671751
:104C000069176B1719198D192119EB18EF18251948
:104C1000F31829193519FF188619031939190719B5
:104C20003D1965190B1941196C19111947194F19BB
:104C3000F7182D19FB18311915194B195B1975192E
:104C40008419E5181D199419B01AB61A9F1AAA1AD0
:104C5000BC1AC21AC81ADE230624EF240624EF2445
:0A4C600039245A24EF24B124BD24A6
:104C6A002202C6F7F6F5F431333236939190946600
:104C7A00973435FFFFFF010000000100000000002B
:104C8A0000000401000000040500000000000028E4
:104C9A000850011E0A14019E1ED31ECC1EC51E01F9
:104CAA00F4F5F6F7C6933632333197669490913518
:104CBA0034FFFFFFE200E900EA00B500B600B700E2
:104CCA00CD008301CC008A019201940121022302C2
:104CDA0024022502260227022A02B300B4006F002A
:104CEA0070009F01CB01818283E200E900EA00B5EE
:104CFA0000B600B700CD008301CC008A019201946E
:104D0A00012102230224022502260227022A02B3D3
:104D1A0000B4006F0070009F01CB018182834702BB
:00000001FF
