:100000000C945A020C9477020C9477020C94681C9E
:100010000C9477020C9477020C9477020C9477027C
:100020000C9477020C9477020C949B170C9457173E
:100030000C9498180C9477020C9477020C94770225
:100040000C9477020C9477020C9477020C9477024C
:100050000C9477020C9474180C9477020C94770229
:100060000C9477020C9477020C9477020C9477022C
:100070000C9477020C9477020C9477020C9477021C
:100080000C9477020C9477020C9477020C9477020C
:100090000C9477020C9477020C9477020C947702FC
:1000A0000C9477020C9477020C94770200002D02D6
:1000B0001A0007000F001D000000110016001700B5
:1000C0000B00130000002B000900100015001900A0
:1000D000000000000000E5002800245200002D0070
:1000E0001C00120018001400000006000C0008009C
:1000F00004000A0000002A001B000D000E0005008D
:1001000000000000000021522C00225200000100DB
:1001100001000100010001000000113816341732FF
:100120000B3101000000010001000100010001008D
:10013000000000000000E4000100010000000100D8
:100140000100010001000100000006280C24082223
:100150000421010000000100010001000100010074
:100160000000000000000100010001000000270065
:10017000260025002400230000001F022102200287
:100180003402370000002C00000028001E0200008E
:1001900000000000000023522352265200001E00DF
:1001A0001F00200021002200000056002900350019
:1001B0003400360000002A00000000003802000071
:1001C000000000000000000000000100000001002D
:1001D000010001000100010000001F38213420321D
:1001E00034310100000001000100010001000100A4
:1001F00000000000000001000100010000000100FB
:1002000001000100010001000000562829243522C8
:100210003421010000000100010001000100010083
:1002200000000000000001000100010000002502A4
:10023000220224022302370200003800300030027C
:100240002702330200002C0037004F00500000004E
:10025000000000000000010000000000000031026A
:100260002E0035022E023602000031002F002F0230
:100270002602330000002A00000051005200000056
:100280000000000000002552255226520000010007
:100290000100010001000100000038383034303224
:1002A00027310100000001000100010001000100F0
:1002B000000000000000010001000100000001003A
:1002C0000100010001000100000031282F242F222D
:1002D00026210100000001000100010001000100D1
:1002E00000000000000001000100010000004300C8
:1002F0004200410040003F00000090003900AB0088
:10030000BB00AE000000450000004D004A00A900FF
:1003100000000000000001000100010000003A00A0
:100320003B003C003D003E00000091002900AC0075
:10033000BC00AD000000440000004E004B00AA00CD
:100340000000000000000100010001000501090299
:10035000A10185020901A10005091901290815005B
:1003600025019508750181020501093009311581C2
:10037000257F95027508810609381581257F95012D
:1003800075088106050C0A38021581257F950175CF
:10039000088106C0C005010980A101850319012A51
:1003A000B700150126B700950175108100C0050C36
:1003B0000901A101850419012AA002150126A00244
:1003C000950175108100C005010906A1018506058A
:1003D0000719E029E7150025019508750181020537
:1003E00007190029EF1500250195F0750181020517
:1003F000081901290595057501910295017503916B
:1004000001C005010906A101050719E029E715004A
:10041000250195087501810295017508810105077F
:10042000190029FF150026FF0095067508810005B3
:10043000081901290595057501910295017503912A
:1004400001C009023B00020100A0FA0904000001FA
:10045000030101000921110100012240000705816B
:100460000308000109040100010300000009211133
:1004700001000122B60007058203200001120100DD
:100480000200000008534601000100010200010CB7
:100490000343006F0072006E0065000000100366E9
:1004A000006F006F007300740061006E00000004B4
:1004B0000309040011241FBECFEFDAE0DEBFCDBF79
:1004C00011E0A0E0B1E0E4E0FDE302C005900D9290
:1004D000A436B107D9F722E0A4E6B1E001C01D922D
:1004E000AE38B207E1F70E94BF180C94411E0C947D
:1004F0000000FC01AC014C5F5F4F8FEF91E3219155
:10050000822728E030E087FF09C0880F8927215023
:100510003109C9F7E417F50791F70895880FF7CF68
:10052000E8EDF0E080818E7F80831092E2001092EF
:10053000DA001092E100A0EEB0E08C9181608C9323
:1005400080818F77808319BCA7EDB0E08C918E7F7E
:100550008C9380818F7E808310925C02089520911D
:10056000E4003091E50095E6A9012091EC00822F8E
:10057000817020FF06C08091E80080FF06C080E007
:1005800008952091E80022FD1AC0809181028823FD
:1005900089F0853089F08091EB0085FD0FC02091B6
:1005A000E4003091E50042175307F9F29150E1F66B
:1005B00084E0089582E0089583E0089581E008953D
:1005C0008091830287FF13C08091E80082FF06C0FC
:1005D0008091E8008B778093E80004C080918102CD
:1005E0008111F2CF0895809181028823D9F38091FF
:1005F000E80080FFF8CF8091E8008E77ECCF982F4D
:100600009093E900242F762F50E0891731F07091F4
:10061000EC002091ED005091F00021FD07C09F5F9C
:10062000973071F78093E90081E008953091EB00F5
:100630003E7F3093EB003091ED003D7F3093ED0035
:100640003091EB0031603093EB007093EC0020931D
:10065000ED005093F0002091EE0027FDE0CF80E008
:100660000895B0E0A0E0E7E3F3E00C948E1DC8ED40
:10067000D0E088818F7E8883E7EDF0E08081816023
:10068000808384E082BF81E080935C0288818E7FDA
:10069000888302EE10E0F80110821092DA0081EEF9
:1006A000C82ED12CF601108288818F7788838881AB
:1006B0008068888388818F7D888319BC109281022D
:1006C000109282021092800210927F0290EEE92E28
:1006D000F12CF70180818B7F808388818160888302
:1006E00042E060E080E00E94FF02F60180818E7FA0
:1006F0008083F8018081816080838081886080832D
:10070000F70180818E7F8083888180618883CDB767
:10071000DEB7E8E00C94AA1DFC018091890290915B
:100720008A0286179707A0F06115710529F4909148
:10073000E8009E779093E80090E06115710551F410
:10074000911108C08091E80082FF34C080E00895D4
:10075000BC01F2CF809181028823C1F18530C1F1C3
:100760008091E80083FD30C08091E80082FDEACFEF
:100770008091E80080FFE1CF8091F3002091F200AA
:10078000382F6115710519F02830310558F091E0C6
:100790002830310509F090E02091E8002E77209371
:1007A000E800CBCF81918093F100615071092F5FF8
:1007B0003F4FE7CF80918102882341F0853041F09F
:1007C0008091E80083FFBECF81E0089582E0089524
:1007D00083E0089580915E02089587E797E79093FC
:1007E00001088093000888E19AE00FB6F894A89574
:1007F000809360000FBE90936000FFCF9C014FB7C5
:10080000F8948091560290915702A0915802B091AD
:1008100059024FBF821B930B08952FB7F894609134
:1008200056027091570280915802909159022FBF41
:1008300008952FB7F8948091560290915702A09195
:100840005802B09159022FBF08952091210122230F
:10085000C9F020915A0227FF15C0E62FE695E695CC
:10086000E695EE31D8F4E80FF92FF11D677021E01D
:1008700030E001C0220F6A95EAF720958281282393
:1008800022830895FC01329608962191621303C0D9
:10089000DF0111971C92E817F907B9F70895209125
:1008A00021012223C1F020915A0227FF14C0E62F14
:1008B000E695E695E695EE31F8F4E80FF92FF11D8F
:1008C000677021E030E001C0220F6A95EAF782816B
:1008D000822B82830895FC0132962FEF30E0419104
:1008E000641751F02F3F19F4411101C0232F3F5FCE
:1008F0003630A9F72F3F09F40895820F911D27FD87
:100900009A95FC0162830895A3E0B0E0EAE8F4E080
:100910000C94941D209153023091540228173907EA
:10092000A1F09093540280935302E0915102F09110
:100930005202309751F024E029839B838A830680FA
:10094000F781E02DCE01019609952396E2E00C9403
:10095000B01DA3E0B0E0EFEAF4E00C94941D209108
:100960004F023091500228173907A1F0909350029E
:1009700080934F02E0915102F0915202309751F072
:1009800023E029839B838A830680F781E02DCE01B3
:10099000019609952396E2E00C94B01D0E9419047B
:1009A0009C0190914B0280914C02982B21F0309346
:1009B00048022093470290914D0280914E02982B5D
:1009C00021F03093460220934502E0915102F091CC
:1009D0005202309749F082E0809349020480F58109
:1009E000E02D89E492E0099508958091440280FD0C
:1009F00016C081FD16C082FD16C080914302882377
:100A0000A1F0883280F428E0829FC001112468E2BE
:100A100070E00E94BB1D862F672B39F0089582E09D
:100A2000089584E0089588E0089581E00895809114
:100A3000440280FD14C081FD14C082FD16C0809167
:100A40004202882381F08E3180F420E5829FC0012C
:100A500011246EE170E00E94BB1D862F089584E191
:100A6000089588E2089588E0089580E5089580E07B
:100A70000895F894E82FE295EF70F0E031A1282F67
:100A80002F7081E090E001C0880F2A95EAF7982F37
:100A90009095932391A392A1892B82A37894089592
:100AA00090915A0292FF06C0282F28712830F9F43D
:100AB000877F846093FF06C0282F28712831F1F4C6
:100AC000877E846120915B0220FF06C0382F387139
:100AD0003830D9F4877F816021FF06C0282F287124
:100AE0002831D1F4877E816194FD877E0895282F77
:100AF00024712430F9F68B7F8860DCCF282F247195
:100B0000243101F78B7E8861DDCF382F3171313090
:100B100019F78E7F8860E0CF282F2171213121F7CE
:100B20008E7E8861E1CF972F7830B8F46630A8F4D4
:100B3000873098F470E026E0929F600D711D1124BB
:100B4000FB0190E3899FE00DF11D1124EE0FFF1FC3
:100B5000E455FF4F85919491089580E090E00895C9
:100B6000CF93DF93EC0182389105B9F108F041C0D1
:100B70008133910509F49FC050F58932910509F43C
:100B80008FC08A9709F49EC0C11520E5D20708F0EE
:100B9000BDC0C11530E4D30708F00AC1C03ED1057D
:100BA00008F0A5C0CD3CD10508F000C1C83AD10578
:100BB00008F08FC0C53AD10508F0F0C0C130D105AA
:100BC00039F1209729F1C430D10510F546C085339D
:100BD000910509F460C0C997B9F680915A028370F3
:100BE00009F044C180915B0283FF12C0C9E2D0E0EA
:100BF0000FC0833E9105A1F178F4803E910509F183
:100C0000823E910509F0C0CF80915A0282FD21C039
:100C1000CE01DF91CF910895863E910561F1873E27
:100C2000910571F1843E910509F0AECF80915B0290
:100C300081FFEECF80915A02C7EED0E084FD0DC057
:100C4000E7CF80915A0280FD33C090915B0290FF04
:100C5000DFCFC3EED0E084FFDBCFD0E0C0E0D8CF61
:100C600080915A0282FDFFC090915B0290FDFEC010
:100C700084FFCECFF2CF80915A0283FDDDCFC8CF63
:100C800080915A0283FDF5C090915B0291FFF0CFF5
:100C9000C4EED0E0BDCF80915A0285FFB9CFA6CF78
:100CA00080915A0285FDE8C080915B0283FFB0CF3E
:100CB000C9E3D0E0ADCF80915A0286FFA9CFCAE246
:100CC000D0E0A6CF80915A0286FFA2CFC1E3D0E048
:100CD0009FCFC13CD10508F6C85AD0E0CC0FDD1F2C
:100CE000CB5DDE4F0990D881C02DD46491CFC11562
:100CF00040E2D40708F0AAC0C11581E0D80708F087
:100D000087CFC83ED10508F483CFA7CFC03622E5F0
:100D1000D20718F5C03432E5D30708F053C0C0320B
:100D200042E5D40708F047C0C11582E5D80708F4AA
:100D30007FC02C2F2695269540E2249F90011124F8
:100D40008C2F8370C1E0D0E002C0CC0FDD1F8A95EC
:100D5000E2F7C22BD32BDD685BCFC03A22E5D20786
:100D600060F4C03832E5D30708F441C0CF71D0E059
:100D7000DC2FCC27C46FD06A4BCFC03C42E5D407F0
:100D800008F44AC0C03E82E5D80708F066CFDC2FE1
:100D9000CC27CC27DF71C06FD06A3ACFC55AD0E0DC
:100DA000CE5DDE4FC881D0E0D06432CFD06530CF89
:100DB000DF70D06A2DCFCF71D0E0DC2FCC27C16F90
:100DC000D06A26CF2C2F26952695277080E2289F63
:100DD000900111248C2F8370C1E0D0E002C0CC0FB1
:100DE000DD1F8A95E2F7C22BD32BDC6811CF2C2FA5
:100DF00026952695277040E2249F900111248C2F80
:100E00008370C1E0D0E002C0CC0FDD1F8A95E2F70D
:100E1000C22BD32BDA68FCCE8C2F8F710E94500529
:100E2000C82FD0E0DC2FCC27CC27DF71D062F0CEEA
:100E30008C2F8F710E94500535E0D695C7953A9555
:100E4000E1F7CF709C2FEC01D069E2CE8D2F8F712E
:100E50000E94500590E0982F882788279F719C0159
:100E60002C2BE901E3CFC2EED0E0D2CEC0EED0E031
:100E7000CFCEC6EED0E0CCCEC5E3D0E0C9CE8091D7
:100E8000FA0181111092FA01089580959091F9016B
:100E900098239093F90108958091D6019091A5012E
:100EA000981301C008958F5F8770FACFB0E0A0E07B
:100EB000ECE5F7E00C948D1D7C0100912C02109163
:100EC0002D0280912A0290912B02082B192BCFE042
:100ED000D0E0CC24C394D12CBC2EC6010C2E02C071
:100EE000880F991F0A94E2F780239123892B49F4F4
:100EF000219790F7B12C8B2DCDB7DEB7E9E00C949C
:100F0000A91DB7018C2F0E9493050E94B00501977F
:100F100079F3F1CFCF93DF93EC010E945607BE0126
:100F20000E9493050E94B005DF91CF9108959830FB
:100F300078F5863068F5E82FF0E086E0989FE00DC0
:100F4000F11D11249E2F977083E0F695E7958A9501
:100F5000E1F7EE0FFF1FEE0FFF1FE957FE4F50E0C6
:100F600040E080E0219130E0092E02C036952795BF
:100F70000A94E2F721703327042E01C0220F0A944D
:100F8000EAF7822B4F5F5F4F4430510559F70895C0
:100F900080E00895983098F5863088F5E82FF0E0E5
:100FA00086E0989FE00DF11D11248E2F877041E09F
:100FB00001C0440F8A95EAF783E0F695E7958A9594
:100FC000E1F7EE0FFF1FEE0FFF1FE957FE4F30E076
:100FD00020E070E05191DF011197CB01022E02C099
:100FE000969587950A94E2F78170819585278423E9
:100FF00085278C932F5F3F4F2430310559F7089593
:1010000090932D0280932C02089521E030E002C0DD
:10101000220F331F8A95E2F72095309580912C029C
:1010200090912D02822393230E94000808959091AD
:10103000D701809589238093D701282F277091F4B9
:10104000282F082E000C330B9217130659F090919D
:101050005B0292FF07C08595859585950E940508DE
:101060001092D701089521E030E002C0220F331F13
:101070008A95E2F780912C0290912D02822B932B7E
:101080000E940008089590932B0280932A020895ED
:10109000FC0183819481892B29F0808191818923AE
:1010A0008F3F51F480E00895843FE1F717C0883EF8
:1010B000A8F0813FB9F712C0808191810E948A0710
:1010C00092959F70963099F358F4925F9F7092308A
:1010D00048F7803F19F040F7883E20F781E00895F7
:1010E0009A5FF4CF662309F45DC08D3C41F40E9401
:1010F0001705819580934C020E94CE0408958E3C82
:1011000019F40E941705F6CF8F3C31F40E941705A1
:10111000819580934B02F0CF803D19F40E94170512
:10112000F8CF893D29F40E94F50480934D02E4CF65
:101130008A3D21F40E94F5048195F7CF8B3D31F46F
:101140000E94F504819580934E02D6CF8C3D19F410
:101150000E94F504F8CF9FE2980F983070F4815DFB
:10116000990B21E030E001C0220F8A95EAF78091C7
:101170004A02822B80934A02BFCF8D3D31F4809189
:101180004402816080934402B7CF8E3D21F4809168
:1011900044028260F7CF8F3D09F0AECF80914402C8
:1011A0008460F0CF40914B028D3C59F480914C0209
:1011B00087FF0DC010924C0241110BC010924202E9
:1011C00008C08E3C81F480914C0218169CF3442395
:1011D00081F080914D0290914E02892B09F08CCFC5
:1011E0001092430289CF8F3C49F447FFF0CF109211
:1011F0004B0280914C028111ECCFE0CF803D19F47D
:101200001416ACF3E4CF90914D02893D29F41916E0
:10121000F4F610924D02DBCF8A3D19F497FFD7CF39
:10122000F8CF90914E028B3D29F497FFD0CF1092CA
:101230004E02CDCF8C3D19F41916CCF3C8CF9FE2E6
:10124000980F983090F4815D990B21E030E0B9015E
:1012500002C0660F771F8A95E2F7CB0180959091C7
:101260004A02892380934A02B2CF8D3D31F48091A6
:1012700044028E7F80934402AACF8E3D21F4809158
:1012800044028D7FF7CF8F3D09F0A1CF80914402BA
:101290008B7FF0CF0F931F93CF93DF938B01EA01E6
:1012A00090918102943061F58093E9008FEF9091E5
:1012B000E800815095FD06C095ED9A95F1F7000084
:1012C0008111F5CF8091E80085FF1AC00E94AF021E
:1012D000811111C08091E80085FD06C08091E80071
:1012E0008E778093E800F2CFF80181918F0180938F
:1012F000F100219779F78091E8008E778093E800DC
:10130000DF91CF911F910F91089543E050E0BC0110
:1013100082E00E944A09089546E050E0BC0182E064
:101320000E944A090895CF93DF93EC018091210137
:10133000811111C048E050E0BE0181E00E944A09DD
:1013400080E2FE01AFE5B2E001900D928A95E1F7EF
:10135000DF91CF91089580915A0287FF05C040E246
:1013600082E050E0BE01EACF48E081E0FACFB0E091
:10137000A0E0EDEBF9E00C948C1D7C015B016A01AF
:1013800080911B0201E010E08A3010F40AE010E0C6
:10139000C1E0D0E0B501C701F6010995811104C093
:1013A00021960C171D072CF4CDB7DEB7EAE00C949C
:1013B000A81DCC9F9001CD9F300D300D112490E0E1
:1013C00080E045E34A95F1F7000001968217930704
:1013D000C1F7E0CF80910502811110C08091D80043
:1013E00080618093D8008AE18A95F1F700C08091EE
:1013F000D90080FF0AC081E08093050281E09091CE
:101400000502913009F080E0089582E080930502A2
:101410000E94900210928102F1CF0E94EA09882373
:1014200059F0E0915102F0915202309729F0019069
:10143000F081E02D0995089580E008958091F901EB
:101440009091F801892B809366019091FA0199237C
:10145000A1F0892B80936601809121018823E1F11D
:1014600080915A0287FF38C08EE1E8E6F1E090E013
:101470008150A0F591110E943F0740E250E068EDD5
:1014800071E086E691E00E942B1E892B21F180E21B
:10149000E6E6F1E0A8EDB1E001900D928A95E1F762
:1014A000E0915102F09152023097A9F08091210110
:1014B000882359F080915A0287FF07C08091660106
:1014C0008093670186E0809366010280F381E02DBE
:1014D00086E691E00995089586E0C7CF2191222301
:1014E00039F29F5FC5CF882321F00E9445070E94F3
:1014F0001E0A0895882339F09091F901982B909352
:10150000F9010E941E0A0895882399F19CEF980F13
:10151000913A40F4682F86E691E00E9425040E94EB
:101520001E0A089590E2980F983050F4877091E069
:1015300001C0990F8A95EAF7892F0E944507EFCFDE
:101540009BE5980F933028F490E080E00E94A90476
:10155000089598E5980F993128F490E080E00E9472
:101560008404089593E3980F933118F460E00E9487
:1015700072080895CF93C82F8823D1F18CEF8C0F78
:10158000813AC0F580912101882311F180915A029E
:1015900087FF1EC0EC2FE695E695E695F0E0EA5948
:1015A000FE4F828190E04C2F477021E030E002C076
:1015B000220F331F4A95E2F782239323892B89F068
:1015C0006C2F86E691E00E9425040E941E0A09C045
:1015D000E8E6F1E08191C81799F381E0EE36F8076B
:1015E000C9F76C2F86E691E00E944F040E941E0A04
:1015F000CF91089580E28C0F883068F4C77021E0A5
:1016000030E001C0220FCA95EAF78091F901822BE0
:101610008093F901EBCFEBE5EC0FE33040F4F0E021
:10162000EE5DFE4F808190E00E94A904E1CFE8E5E5
:10163000EC0FE93150F4F0E0EE0FFF1FEB5DFE4FD1
:10164000808191810E948404D3CF83E38C0F833106
:1016500078F661E08C2F0E947208CACF0F931F9317
:10166000CF93DF93C62FD42F022FFC0182818823D2
:10167000A9F060938D020E94190490938C028093CC
:101680008B02C77081E001C0880FCA95EAF70E94FB
:101690007A0ADF91CF911F910F91089580918D0269
:1016A000681335C080918B0290918C020E94FE03DA
:1016B000883C910560F510E21D0FCD17B9F080E26E
:1016C0008C0F883040F4C77081E001C0880FCA9544
:1016D000EAF70E94730A183048F481E09D2F977052
:1016E00001C0880F9A95EAF70E947A0A802F0E941B
:1016F000BA0A802F0E94840A183058F6D77081E009
:1017000001C0880FDA95EAF70E94730AC2CFC7704A
:1017100081E001C0880FCA95EAF7F6CF90915B028D
:1017200092FB222720F9281779F080FB92F99093F9
:101730005B0260915A0270915B0284E090E00E942B
:10174000151E82E00E94170808951092F9018091F9
:101750002101E8E6F1E0882329F180915A0287FF10
:1017600021C08EE1DF011D928A95E9F790E080E0CB
:101770000E94A90490E080E00E9484041092F80185
:101780000E941E0A86E0E9E4F2E0DF011D928A95DC
:10179000E9F71092420210924302109244020E9412
:1017A000CE04089586E0DECFAAE2B0E0EAEDFBE0E9
:1017B0000C94931D83E892E02091F100FC012193A9
:1017C000CF01F2E08B389F07B9F780918402833014
:1017D00009F470C0B8F4813009F447C0823009F4CC
:1017E000B1C08091E80083FF7EC280918302909116
:1017F00084029A3008F077C2E92FF0E0ED5BF14EF9
:101800000C94CF1D8A3009F48CC08B3009F46FC062
:10181000893039F780918302813219F780918702EC
:10182000909188020297E8F68091E800877F809384
:10183000E8008091E80082FF38C09091F300809129
:10184000F200029731F48091F100813011F086307E
:1018500021F48091F10080935E028091E8008B7703
:101860008093E8000E94E002BCCF80918302813A1D
:1018700009F0B7CF8091E800877F8093E8008091DE
:10188000870290918802892B61F460E28FE592E0F3
:1018900070E00E948C038091E8008B778093E800D1
:1018A000A0CF60E090E080E0F3CF809181028111D1
:1018B000C0CF97CF80918302813A09F092CF809177
:1018C000870290918802892B09F08BCF8091E800E4
:1018D000877F8093E8008091E80080FFFCCF8091B3
:1018E00021018093F1008091E8008E77B9CF80913B
:1018F0008302813209F075CF80918702909188022E
:10190000892B09F06ECF8091E800877F8093E800F3
:101910000E94E00280918502809321010E94A50B24
:1019200060CF80918302813209F05BCF8091E80023
:10193000877F8093E8000E94E00280918602809376
:101940005D024FCF80918302813A09F04ACF8091A6
:10195000E800877F8093E8008091E80080FFFCCF5B
:1019600080915D02BECF803899F0823809F0BBC10A
:10197000809187028F70873008F0B5C18093E900AD
:101980008091EB0085FB882780F91092E90006C062
:1019900080917F0290918002911182609091E80085
:1019A000977F9093E8008093F1001092F10080916E
:1019B000E8008E7794C1882309F482C1823009F04F
:1019C00092C180918502811185C1809187028F70BB
:1019D0002FEF280F263008F086C18093E900209170
:1019E000EB0020FF77C1933031F48091EB008062EF
:1019F0008093EB006FC19091EB0090619093EB00AE
:101A000021E030E001C0220F8A95EAF72093EA0036
:101A10001092EA008091EB008860EACF811163C1E7
:101A2000109185021F778091E3008078812B80934D
:101A3000E3008091E800877F8093E8000E94E00245
:101A40008091E80080FFFCCF8091E3008068809364
:101A5000E30082E0111183E08093810244C1805849
:101A6000823008F040C180918502909186028C3DC1
:101A700023E09207A1F583E08A838AE289834FB746
:101A8000F894DE01139620E03EE051E2E32FF0E00F
:101A900050935700E49120FF03C0E295EF703F5F41
:101AA000EF708E2F90E0EA30C0F0C7968D939D9333
:101AB0002F5F243159F74FBF8091E800877F8093D3
:101AC000E8006AE270E0CE0101960E948C038091EA
:101AD000E8008B778093E80006C1C096E7CF40917D
:101AE000870250918802292F33272330310509F4CA
:101AF00044C078F52130310509F46FC08BE390E0E4
:101B0000E2E4F4E02230310509F0EDC02091E80074
:101B1000277F2093E8002091890230918A02821762
:101B2000930708F49C0140E02115310509F064C0D9
:101B3000411162C08091E80082FDC9CF809181028D
:101B4000882329F2853019F28091E80083FFF2CFD3
:101B5000BECF21323105A9F12232310509F0C3C0CF
:101B60004115510509F443C04130510509F0BBC08E
:101B700086EB90E0ECE4F3E0C9CF99278130910542
:101B8000C1F0009759F0029709F0ADC0EFE8F4E01A
:101B9000E4918E2F90E0EFE8F4E007C0EFEAF4E084
:101BA000E4918E2F90E0EFEAF4E0009709F49BC0F7
:101BB000ADCFEDE9F4E0E4918E2F90E0EDE9F4E0B3
:101BC000F4CF4115510571F04130510509F08BC03A
:101BD00089E090E0EDE6F4E099CF82E190E0EDE776
:101BE000F4E094CF89E090E0E4E5F4E08FCF80E486
:101BF00090E0E2E0F4E08ACF80918102882309F44A
:101C000066CF853009F463CF8091E80083FD5FCF14
:101C10008091E80082FD8ECF8091E80080FF84CF24
:101C20009091F3008091F2002115310519F0883070
:101C3000910550F041E0089709F040E08091E800FC
:101C40008E778093E80070CF44914093F1003196F5
:101C5000215031090196E8CF803809F044C08091C5
:101C6000E800877F8093E800809182028093F100F2
:101C70009ECE811138C0109185021230A0F580915E
:101C8000E800877F8093E800109382020E94E002C0
:101C9000112311F084E005C08091E30087FDFACFA5
:101CA00081E08093810242E061EC81E00E94FF02CA
:101CB00042E261EC82E00E94FF028091810213C047
:101CC00080918502813079F481E0933009F080E0E1
:101CD000809380021092E9008091E800877F8093D2
:101CE000E8000E94E0028091E80083FF0AC0809132
:101CF000E800877F8093E8008091EB00806280930A
:101D0000EB00AA96E3E00C94AF1D0E94A50B2FEF09
:101D100084E39CE0215080409040E1F700C0000047
:101D200088E19AE00FB6F894A895809360000FBE02
:101D300090936000FFCFA5E0B0E0E1EAFEE00C94F4
:101D40008A1D7C01FC0183819481892B31F0808183
:101D5000918189238F3F09F09DC32596ECE00C9477
:101D6000A61D0E945607182F682F89819A810E940C
:101D7000CA0769817A81812F0E9493058C01FC0139
:101D8000E851FC47E730F10588F5E35BF14E0C9430
:101D9000CF1D26E241EE61EEC7010E942E0B80911D
:101DA000D7018770D1F2F70182818823B1F2809147
:101DB0005B0282FFD2CF82E00E941708CECF27E2DB
:101DC00045EE65EEE9CF26E241EE60EEE5CF27E293
:101DD00045EE64EEE1CF26E241EE62EEDDCF27E292
:101DE00045EE66EED9CF28E241E0EBCFF7018281E4
:101DF000882309F476C310928D02C8019057839707
:101E000008F059C384E090E00E94F11D90935B02BA
:101E100080935A02F801E150F047E232F10520F4D4
:101E2000EC5AF14E0C94CF1D80915A028160809340
:101E30005A0295C080915B02886080935B028FC0DC
:101E400080915A028260F3CF80915A028460EFCF72
:101E500080915A028860EBCF80915B028160EDCF68
:101E600080915B028260E9CF80915A028061DFCF6E
:101E700080915A028062DBCF80915A028064D7CF72
:101E80000E94A50B80915A028068D1CF80915A029E
:101E90008C60CDCF80915B028360CFCF80915A025E
:101EA0008E7FC5CF80915B02877FC7CF80915A021A
:101EB0008D7FBDCF80915A028B7FB9CF80915A021E
:101EC000877FB5CF80915B028E7FB7CF80915B0219
:101ED0008D7FB3CF80915A028F7EA9CF80915A0215
:101EE0008F7DA5CF80915A028F7BA1CF0E94A50B39
:101EF00080915A028F779BCF80915A02837F97CF30
:101F000080915B028C7F99CF80915A0282FB992746
:101F100090F921E0922790FB82F990FB83F987CF1B
:101F200080915B02982F909591708E7F892B90FB0A
:101F300081F983CF90915A02892F8F7B96FF80641D
:101F400076CF0E94A50B90915A02892F97FB87F9B3
:101F500080586DCF61E08EE090E00E94F71D6091A7
:101F60005A0270915B0284E090E00E94151E0E946C
:101F7000A50B15CF60E0EFCF90915A02892F8F7E8D
:101F800094FF806154CF90915A02892F8E7F90FFE9
:101F900081604DCF90915B02892F877F93FF88608E
:101FA0004CCF0E94A50BFFEF24E33CE0F150204012
:101FB0003040E1F700C000000E94ED036FEF7FEFBB
:101FC00090E080E00E94151E0E94850E80915B02C9
:101FD00082FB882780F991E089270E948E0BF70108
:101FE000828100811181882309F443C0C8010E94C5
:101FF0005607D82E682FC8010E94CA07B8018D2D38
:102000000E9493050E94B0058C01882EF701D280B2
:10201000B580B2943FE0B3228091D7018770C1F0C0
:10202000AD2CDD20B1F0812F807F803421F080E263
:10203000800F883068F080915B0282FF09C082E0E7
:102040000E9417088091D7018770AA24A394811158
:10205000A12C912E92942FE09222FBE0F91508F426
:1020600074C0E92DF0E0EA58F14E0C94CF1D80E0E9
:10207000B4CFC8010E949707D82EC0CF212F2F7050
:10208000C22E107F19F0C29490EFC922DD20B9F062
:10209000CC2069F080E2800F883010F0811009C0F8
:1020A0008091F901C82AC092F9010E941E0A802F6E
:1020B0004AC08091F801C82AC092F801F6CF802F5B
:1020C0000E94840ACC2009F440C0005E083010F061
:1020D000811004C08C2D0E94450706C0C0948091D9
:1020E000F801C822C092F8010E941E0A2EC0312FAA
:1020F0003F70C32E107F103219F0C29480EFC822B7
:10210000882089F081E0881609F47CC0DD2009F47C
:1021100086C0BB2009F47CC0F701858180FFC7CF52
:102120008F70858375C020915B0222FD43C0DD2046
:10213000D9F1CC2039F08091F901C82AC092F90177
:102140000E941E0A80E00E94BA0AE92DE850FF0BA7
:10215000349710F40E940D0AAA20A9F08091D701AB
:1021600080FD11C0F70112828595859585950E94A5
:102170003308C7010E949B0E8091D70185958595F4
:1021800085950E94050885E0F701DE011196019012
:102190000D928A95E1F709811A81C8010E9497077B
:1021A000B8010E949305D9CD80E00E94840ACC201A
:1021B00061F290CFDD20A1F09091FA018C2D892B56
:1021C000B11003C00E947A0AC0CFE1E0BE12FACF7C
:1021D00022FFBBCF891709F4B8CF8093FA01B5CF9E
:1021E000B11006C00E943F078C2D0E94730AADCF2C
:1021F000F1E0BF1609F4A9CF8C2D0E94730A0E944A
:102200003F07A3CFDD2031F025E02B1508F49DCF4B
:102210008C2DD8CF34E03B1508F497CFE5CFBB2009
:1022200019F3F9E38F122FC12FEF37EE83E021501E
:1022300030408040E1F700C0000025C1812F869525
:102240008695837061F0813009F07FCFC80193706B
:10225000D11002C080E090E00E94840476CFC801D3
:102260009370D11002C080E090E00E94A9046DCF6D
:102270006D2D802F0E94720868CF812F837009F026
:102280003FC0D11062CF402F429546954770440F12
:10229000440F802F8F7090E0042E02C0880F991F8A
:1022A0000A94E2F730E020E004FF09C02FE030E0BC
:1022B00002C0220F331F4A95E2F7209530951695FC
:1022C00016951370123099F078F440912A025091CB
:1022D0002B02113039F0822B932B842395230E94FB
:1022E000430833CF842B952B822B932BF8CF822B53
:1022F000932B20912A0230912B0282279327EFCF34
:102300008695DD2011F0812F8170882309F41DCF7F
:10231000402F429546954770440F440F802F8F7091
:1023200090E0042E02C0880F991F0A94E2F730E073
:1023300020E004FF09C02FE030E002C0220F331F6D
:102340004A95E2F720953095169516951370123040
:1023500099F078F440912C0250912D02113039F00F
:10236000822B932B842395230E940008EECE842B8E
:10237000952B822B932BF8CF822B932B20912C0221
:1023800030912D0282279327EFCF1F70DD2029F097
:10239000812F0E943308802F15CF802F0E94730A4F
:1023A000812F0E940508D1CE802F92EF891699F1D6
:1023B000981570F0E0EF8E16D1F0F1EF8F1691F0D6
:1023C000DD2009F45BC0B11072CE812F8F7127C060
:1023D00023EF821639F134EF8312F2CF80915B0242
:1023E00082FD2EC0812F8F71DD20D9F218C0DD2033
:1023F00069F084E08B1508F4A8CE1F7181E090E0AD
:1024000002C0880F991F1A95E2F7B8CF95E09B1587
:1024100008F49BCEF2CF812F8F71D110C2CF0E94D2
:10242000330893CE90E080E0DD2009F49DCF1F714A
:1024300081E090E002C0880F991F1A95E2F794CFCF
:10244000DD2089F01F71812F0E94330880915B028B
:1024500082FF07C0E8E01E9FC001112483608093C3
:10246000D701812FDCCF81E00E941708F1E0FB1536
:1024700008F06BCE82E00E94170867CEBB2039F0CF
:10248000893309F4D1CE802F0E94840A5ECE812F39
:102490008F7187CF85E0DE01119601900D928A95AC
:1024A000E1F7F701228189819A8121115ACC0E949A
:1024B0009707182F5ECC0631FCE71F0709F58091BE
:1024C000F9018A7A91E009F490E09093860169E23B
:1024D000811165E386E691E00E944F040E941E0A86
:1024E0005ECC06312CE7120709F079CD8091860188
:1024F00069E2811165E386E691E00E942504EECF52
:1025000003303CE7130709F459CD50F401159CE75B
:10251000190709F446CD01301C4709F455CD5FCDAC
:102520000B35FCE71F0709F4A2CD0C352CE7120789
:1025300009F44CCD0A351C4709F051CD81E04DCD51
:102540001F93CF93DF938091A401807F09F049C04E
:102550008091A101882309F444C08091D601D091D3
:10256000A50160919F017091A001A091A201B0917D
:10257000A301C62FC72316E0D81799F190E0109752
:1025800011F0CF3F19F401968770F6CF189F900194
:10259000199F300D1124F901EA55FE4F418147136F
:1025A000F2CF40814613EFCF42814111ECCF4381FE
:1025B00054814A1B5B0B483C510528F78091A401CC
:1025C0008F7080618093A401F901E555FE4F8081F1
:1025D0008F70806180838FE991E00E949B0E0E9442
:1025E0004C07DF91CF911F910895A1E1B0E0EBEF8F
:1025F000F2E10C948C1D8C0185E0F801DE011D9642
:1026000001900D928A95E1F7F801E2808FE9A82EFA
:1026100081E0B82E6091A2017091A301611571054E
:1026200009F426C190919F014091A001892F842334
:102630008F3F09F41DC120813181C380D480F09087
:10264000A101F601E61BF70BFF2009F4DCC0809125
:10265000A401582F507FE83CF10508F09FC05111AC
:102660006BC0FE2C431314C0921312C0E11010C0B3
:102670008F7080618093A401C5010E949B0E8091A0
:10268000A401F80185838F2D6196EAE00C94A81DC2
:10269000C114D10429F0822F83238F3F09F003C195
:1026A00080E0F82FF170DF2E80FF3CC08091D601D2
:1026B0004091A50156E0841315C02D873E878D8576
:1026C0009E850E948A07292F22952F702230F0F0D4
:1026D000243018F59F70F1F0F8019581907FD1F4C6
:1026E000D12C1EC090E0589FF001599FF00D11248D
:1026F000EA55FE4F6181361306C06081261303C080
:102700006281E6120FC001968770D5CF9F7011F0DD
:10271000882331F3805E883018F3C8010E949B0E35
:10272000FD2CB1CFEE2009F4AECF8091A4018160E1
:102730008093A401F12CA7CF431306C0921304C0C9
:10274000F801EE2009F479C0C8010E9448088823E6
:1027500009F1EE20F9F08091A401803270F020910F
:102760009F013091A00138872F831986DB86CA86A6
:102770008C87CE0107960E949B0E86E0F801AFE998
:10278000B1E001900D928A95E1F70E94A012FF241A
:10279000F39479CFC8010E949B0EF9CF51110AC062
:1027A0008FE991E00E949B0E86E0F50111928A95D7
:1027B000E9F7C0CF43130FC092130DC0E1100BC057
:1027C000F8018583C8010E949B0E86E0F5011192F5
:1027D0008A95E9F758CFC8010E9448088823D1F2AA
:1027E000EE20C1F28091A401803238F220919F0145
:1027F0003091A0013A8329831B82DD82CC828E83B3
:10280000CE010196B8CFE83CF105F8F6FE2CEE209B
:1028100009F243131FC092131DC08091A40180FDD3
:1028200010C0982F907F69F0F8018583903F31F0B8
:10283000982F907F905F8F70892B8583C8010E94AD
:102840009B0E86E0F801AFE9B1E001900D928A9508
:10285000E1F719CFC8010E94480881118ECF8091FD
:10286000A40181608093A401C8010E949B0E0BCF3C
:10287000EE2009F48FCFC8010E944808F82E882363
:1028800009F488CF86E0F801AFE9B1E001900D923C
:102890008A95E1F780919F019091A0010E948A079B
:1028A0000E94A012F0CE81E08E25FBCEA7E1B0E021
:1028B000ECE5F4E10C94931D4B8B5C8B6D8B7E8B64
:1028C0008F8B61111092F8011A8A198A85E0FE0136
:1028D0007396DE011D9601900D928A95E1F786E0D0
:1028E000FE013D96DE01179601900D928A95E1F763
:1028F000CE0107960E94F512811112C086E0FE01FA
:102900003796DE01119601900D928A95E1F78A853E
:102910009B85892B29F088859F8189238F3F81F5AD
:1029200016E08091D6019091A501891317C0679692
:10293000E3E00C94AF1D96E0929FD001939FB00D01
:102940001124AA55BE4FFE01319601900D929A9521
:10295000E1F78093A5010E944C07E2CF819FC0015F
:1029600011248A559E4F0E94F512882301F380910D
:10297000D60190E00196877099278093D601D1CF38
:102980002091A50130E0C9010196877099274091F7
:10299000D6014817190679F60E94A50B1092A501D9
:1029A0001092D60186E0EFE9F1E0DF011D928A95F1
:1029B000E9F7B6CFA4E0B0E0E0EEF4E10C94921DAC
:1029C00040911702509118026091190270911A02F9
:1029D0002FB7F8948091560290915702A091580217
:1029E000B09159022FBF841B950BA60BB70B11E0BA
:1029F00084369105A105B10590F10E94EA0988236A
:102A000099F10E940D046E5F7F4F8F4F9F4F698336
:102A10007A838B839C838091110190911201825F54
:102A20009D4F4091100150E04530510510F044E0B9
:102A300050E0BE016F5F7F4F0E94381E82E090E041
:102A40000E940E1D182F882351F00E940D046093E0
:102A50001702709318028093190290931A02812F23
:102A60002496E4E00C94AE1D0E940D0400911C021B
:102A700010911D0220911E0230911F02600F711FE4
:102A8000821F931FC0CFEF92FF921F93CF93DF93CC
:102A900000D000D00F92CDB7DEB77B0190E080E090
:102AA0000E940E1D182F882309F46DC04091030168
:102AB00050E04115510511F041E050E060910401F2
:102AC00070910501625F7D4FCE0105960E94381E10
:102AD00040910A0250910B0260910C0270910D021C
:102AE0002FB7F8948091560290915702A091580206
:102AF000B09159022FBF841B950BA60BB70B8436E0
:102B00009105A105B10538F48FE092E00E947902A9
:102B10009D818917C1F181E090E00E940E1D8823FC
:102B200009F458C040910B0150E04530510510F0B8
:102B300044E050E060910C0170910D01625F7D4FA7
:102B4000CE0101960E94381E8FE092E00E94790229
:102B50009D8189133FC00E940D0460930A02709307
:102B60000B0280930C0290930D0289819A81AB81B4
:102B7000BC818093060290930702A0930802B09351
:102B8000090211E00EC080910F0290911002A091F5
:102B90001102B091120289839A83AB83BC83111115
:102BA000E4CF8091060290910702A0910802B091B3
:102BB0000902F70180839183A283B383812F0F9051
:102BC0000F900F900F900F90DF91CF911F91FF907A
:102BD000EF90089510E0E5CFACE0B0E0E2EFF5E172
:102BE0000C94891D8E010F5F1F4F88E0D8011D9244
:102BF0008A95E9F789E5C82E81E0D82EF12CE12CE1
:102C0000AA24A394B12C23E6822E21E0922EF60171
:102C100081916F018F3F09F442C0F894E82FE2954B
:102C2000EF70F0E021A18F70A50102C0440F551F85
:102C30008A95E2F7CA01922F982B91A392A18095D1
:102C4000892382A3789400C0EDE5F1E0712C31E096
:102C500021912F3F09F46BC0A22FA295AF70B0E075
:102C600090968C9190E02F7002C0959587952A954B
:102C7000E2F780FD5CC0832F782A330F8E169F0603
:102C800039F7F601319780818F3F11F00E943905A5
:102C900050EA5A95F1F7F801EE0DFF1D70828FEFA3
:102CA000E81AF80AA4E0EA16F10409F0B0CF48E007
:102CB00050E0B80180E292E00E942B1E009741F0A4
:102CC00028E0F801A0E2B2E001900D922A95E1F728
:102CD00000912902892B69F181E08093FD010E9416
:102CE00019049093FC018093FB018091FB0190916A
:102CF000FC010E94FE03059700F110E0005D1D4FEE
:102D000044E050E060E272E0C8010E942B1EB12C4A
:102D1000892B51F084E0E0E2F2E0D80101900D92BD
:102D20008A95E1F7BB24B3941092FD0107C080E0BF
:102D3000A3CF8091FD018111D8CFB12C0E94EA0967
:102D4000A82EE0912902882309F470C019861A86FA
:102D50001B861C860E2F10E0005D1D4F80911B020C
:102D60008A3078F543E455E1BE01675F7F4FC801C3
:102D70000E94B709882309F448C04AED54E1BE0116
:102D8000675F7F4FC8010E94B7098823F1F1109255
:102D90001B028091280290E044E050E0BE01675F92
:102DA0007F4F805D9D4F0E942B1E21E020930402E7
:102DB000892BE9F4A12C8A2D8B292C96EDE00C941B
:102DC000A51D8091FE019091FF010E94FE03843FAA
:102DD000914040F680910402882361F3FE01399608
:102DE00084E0DF011D928A95E9F710920402E091D8
:102DF0002802F0E0E05DFD4F89859A85AB85BC85B2
:102E000080839183A283B383D6CF80911B028F3FAF
:102E100031F08F5F80931B028A3008F4BACF0E9492
:102E200019049093FF018093FE01D4CFF0E0E05DA0
:102E3000FD4F84E0AFE0B2E001900D928A95E1F79A
:102E40008FE092E00E94790280930E02C0901302FC
:102E5000D0901402E0901502F090160280910002CA
:102E600090910102A0910202B0910302C816D90606
:102E7000EA06FB0609F49FCFC0920002D09201023D
:102E8000E0920202F09203020E94EA09811193CFBC
:102E90000E940D04C61AD70AE80AF90AC0921C0259
:102EA000D0921D02E0921E02F0921F0284CF1F9268
:102EB0000F920FB60F9211242F933F934F935F936E
:102EC0006F937F938F939F93AF93BF93CF93DF9332
:102ED000EF93FF93D091E900DF708091EC00C82F51
:102EE000C17080FDC0E81092E9008091F000877FFA
:102EF0008093F00078940E94D40B1092E9008091A6
:102F0000F00088608093F000CD2BCF70C093E90073
:102F1000FF91EF91DF91CF91BF91AF919F918F91F1
:102F20007F916F915F914F913F912F910F900FBEC5
:102F30000F901F9018951F920F920FB60F921124A9
:102F40002F933F934F935F936F937F938F939F93B1
:102F5000AF93BF93EF93FF938091E10082FF09C08D
:102F60008091E20082FF05C08091E1008B7F809319
:102F7000E1008091DA0080FF24C08091D80080FFBA
:102F800020C08091DA008E7F8093DA008091D90092
:102F900080FF9DC080E189BD82E189BD09B400FE4A
:102FA000FDCF81E08093810280915C02811109C094
:102FB0000E9490020E9431038091E200846080931D
:102FC000E2008091E10080FF17C08091E20080FF65
:102FD00013C08091E2008E7F8093E2008091E20036
:102FE00080618093E2008091D80080628093D80055
:102FF00019BC85E0809381028091E10084FF2BC0A1
:103000008091E20084FF27C080E189BD82E189BD13
:1030100089B5982F917080FFFBCF8091D8008F7D6C
:103020008093D8008091E1008F7E8093E1008091B1
:10303000E2008F7E8093E2008091E20081608093C5
:10304000E20080918202882309F447C084E08093E3
:103050008102809181028091E10083FF27C08091ED
:10306000E20083FF23C08091E100877F8093E1002D
:1030700082E080938102109282028091E1008E7F33
:103080008093E1008091E2008E7F8093E200809146
:10309000E20080618093E20042E060E080E00E9414
:1030A000FF028091F00088608093F000FF91EF9123
:1030B000BF91AF919F918F917F916F915F914F9150
:1030C0003F912F910F900FBE0F901F90189519BC34
:1030D0001092810210925C0274CF8091E30087FD10
:1030E00093E090938102B5CF78941F921FB61F9200
:1030F00011248F939F93AF93BF9380915602909129
:103100005702A0915802B09159020196A11DB11D1C
:103110008093560290935702A0935802B09359029D
:10312000BF91AF919F918F911F901FBE1F901895D7
:103130001F921FB61F9211248F939F93AF93BF933B
:1031400080915502811113C08091560290915702CF
:10315000A0915802B09159024196A11DB11D8093D2
:10316000560290935702A0935802B0935902BF9110
:10317000AF919F918F911F901FBE1F901895CDB753
:10318000DEB760970FB6F894DEBF0FBECDBF85B730
:10319000806885BF85B7806885BF84B7877F84BF17
:1031A0000FB6F894A89580916000886180936000C4
:1031B000109260000FBE80E890E00FB6F894809304
:1031C0006100909361000FBE87E395E090936501E5
:1031D000809364010E9490020E9431038091E2007A
:1031E00084608093E2007894809181028823A1F02A
:1031F0001091E9001F709091EC00892F817090FD73
:1032000080E8182B1092E9008091E80083FD0E946D
:10321000D40B1F701093E90082E084BD93E095BD4C
:103220009AEF97BD80936E0010921C0210921D02BF
:1032300010921E0210921F020E94EA098093180148
:103240000E94EA0981110E94221C8091180180913C
:10325000180194E0811190E09093290284E0891B89
:103260008093280284E90E94390586E60E94390588
:1032700087E90E94390586EC0E9439050DE511E0C9
:1032800043E6E42E41E0F42ED8018D918D018F3F6D
:1032900011F00E943905E016F106B1F788E0E0E38D
:1032A000F2E0DF01282F1D922A95E9F7E0E2F2E033
:1032B000DF011D928A95E9F790E080E00E94F11D00
:1032C000873E9E4F09F45EC067EE7EEF90E080E09F
:1032D0000E94151E60E082E090E00E94F71D60E011
:1032E00083E090E00E94F71D10922B0210922A02B8
:1032F00060E074E184E090E00E94151E60E086E0EA
:1033000090E00E94F71D6FEF87E090E00E94F71DAC
:1033100040E050E0BA0188E090E00E94091E60E0C1
:103320008DE090E00E94F71D40E050E0BA0188E196
:1033300090E00E94091E60E087E190E00E94F71D86
:1033400040E050E0BA018CE190E00E94091E70E07C
:1033500060E080E290E00E94151E40E050E0BA017B
:1033600088E190E00E94091E40E050E0BA018FE041
:1033700090E00E94091E40E050E0BA0183E190E035
:103380000E94091E82E090E00E94E91D80933802AD
:1033900084E090E00E94F11D90935B0280935A02BA
:1033A0000E94EC15EFE3FCE93197F1F700C0000053
:1033B0000E94EC150E94EA09E4E08111E0E0F0E0EF
:1033C000E05DFD4F808181FF08C06FEF7FEF90E0EF
:1033D00080E00E94151E0E94ED0383E090E00E94B1
:1033E000E91D90E00E9443080E94EA09811102C091
:1033F0000E94251C89E191E0909352028093510232
:1034000028E1C22ED12C38E3A32E32E0B32E91E472
:10341000892E92E0992E8091810200E112E185309F
:1034200009F47EC00E94EC1509E312E080E3E82E67
:1034300082E0F82ED701F80191918D918E169F06AA
:1034400009F478C09817C1F30E94EA09282E712C5C
:10345000D7016D907D01F80131908F01361429F16B
:10346000512C442443943624832D8421B1F022200E
:10347000A1F05C867D8691E0842D862109F490E0A0
:103480009E870E9419048160782F988B8F874C85C6
:103490005D856E8588890E9456145394440CF6E02D
:1034A0005F12E2CFF80131976082739428E07212C4
:1034B000CFCF0E940D045EC080918102843011F153
:1034C00010925502F0E40FB6F894A895C0926000EF
:1034D0000FBEF093600083B7817F846083BF83B7A2
:1034E000816083BF7894889583B78E7F83BF0FB642
:1034F000F894A89580916000886180936000109294
:1035000060000FBE80918002882351F00E94EC156C
:10351000E0E3F2E0819181111BC1AE16BF06D1F745
:1035200080918102853009F4C7CF0E94A50B0E94CB
:103530000D0A78CF981388CF0E9419048C018091CE
:103540002E0290912F0208171907A1F08FEF8F8399
:10355000888719860E9419048160782F9B878A8743
:103560004F81588569858B850E94561410932F02D0
:1035700000932E020E94EA0986E0E9E4F2E0DE010F
:10358000119601900D928A95E1F710924B021092DC
:103590004C0210924D0210924E028B819C81892B1D
:1035A00009F44AC080914702909148020E94FE03AC
:1035B0009C0190914202992309F4E5C0253131051F
:1035C000D8F19F3F19F09F5F909342021B81112316
:1035D00059F00E9417059FEF11160CF491E0899F96
:1035E000802D112480934B021C81112359F00E94DD
:1035F00017059FEF11160CF491E0899F802D11247F
:1036000080934C0230914B023323B1F020914C0255
:10361000222391F045EB3403C0011124992309F4CE
:1036200087C090934B0245EB240390011124332370
:1036300009F482C030934C028D819E81892B09F45C
:1036400049C080914502909146020E94FE039C0170
:1036500090914302992309F491C021353105D0F1AD
:103660009F3F19F09F5F909343021D81112359F0F2
:103670000E94F5049FEF11160CF491E0899F802DB4
:10368000112480934D021E81112359F00E94F504EC
:103690009FEF11160CF491E0899F802D11248093E7
:1036A0004E0230914D023323A9F020914E02222385
:1036B00089F045EB3403C0011124992309F440C07B
:1036C00090934D0245EB2403900111243323E1F143
:1036D00030934E0246E050E0BE016F5F7F4F89E4B9
:1036E00092E00E942B1E892B61F480914B029091F5
:1036F0004C02892B90914D02892B90914E02892B7F
:1037000011F00E94CE0486E0FE013196A9E4B2E0F9
:1037100001900D928A95E1F70E940D0A9091410265
:10372000891709F478CE809341020E940D046FCE70
:1037300081E080934B0277CF81E080934C027CCF75
:1037400081E080934D02BECF81E080934E02C2CFD4
:1037500009BD19BD09B400FEFDCF8091D8008F7D51
:103760008093D8008091E00082608093E000809197
:10377000E00081FDFCCF0E94A50BD2CE2B3031059D
:1037800008F070CFA7CF2B30310508F01CCF54CFF5
:103790008EE14A9B02C08150E1F74A9BFECF08951B
:1037A0005A9880E28A95F1F75A9A0895FC013BE015
:1037B0003A95F1F798E020E080E031E040E14A9569
:1037C000F1F7880F4A9B02C08160232742E04A95A7
:1037D000F1F7000040E14A95F1F7915079F790E157
:1037E0009A95F1F799B132E03A95F1F7000040E18E
:1037F0004A95F1F792FB992790F992272081920F31
:1038000090830895A1E0B0E0E8E0FCE10C94901D05
:1038100019828C017C01E60EF11C0E151F0541F486
:1038200081E09981911180E02196E6E00C94AC1D35
:103830000E94C81BCE0101960E94D61BF8018193FD
:103840008F01EBCF529A5A9A089552985A9AEA9A4F
:10385000E9E6F0E080818F7C808308956150770BEA
:1038600091E001C0990F6A95EAF720E031E09111EB
:1038700008C0222391F05A9A80E28A95F1F75A986B
:103880000895492F482339F05A9A232740E24A9550
:10389000F1F79695ECCF5A98F9CF5A98EDCFFF9261
:1038A0000F931F93CF93DF93EC018C01060F111D33
:1038B000C017D10729F4CDB7DEB7E5E00C94AD1DF4
:1038C000F9900E94D01B68E08F2D0E942E1CF0CF33
:1038D0001F920F920FB60F9211240F931F932F93E5
:1038E0003F934F935F936F937F938F939F93AF9388
:1038F000BF93EF93FF93CF93DF930F92CDB7DEB7D4
:1039000019820E94C81BCE0101960E94D61B082F67
:10391000069506950695282F22952570902F95706F
:10392000290F922F937026952695920F98279770BE
:103930008981982B09F05CC0043008F059C080E1FF
:103940008A95F1F75A9A529A82E08A95F1F700C067
:103950005A9888E0089F80011124D801A050BF4FD9
:103960001696ED91FC9117973097A9F06091570149
:103970007091580114962D913C911597260F371F81
:1039800011968D919C911297680F791F13964C9107
:1039900013978C910995F801E050FF4F63816623DE
:1039A00051F0209157013091580184819581820F07
:1039B000931F0E944F1C0E94D01B80E18A95F1F753
:1039C0005A9852985A9A80E18A95F1F7F801E05096
:1039D000FF4F6081662351F02091570130915801CB
:1039E00081819281820F931F0E94021C0E94C81B3A
:1039F0000F90DF91CF91FF91EF91BF91AF919F9188
:103A00008F917F916F915F914F913F912F911F9176
:103A10000F910F900FBE0F901F9018950F931F934B
:103A2000CF93DF93EC0104970CF04CC0F894529ABA
:103A30005A9885E08A95F1F700009C2F969595702D
:103A40008C2F8570980F892F83709695969523E01B
:103A5000CC0FDD1F2A95E1F7980F8E01092B0E94EC
:103A6000D01B00C068E0802F0E942E1C80E18A9548
:103A7000F1F752985A9A4A9B1EC087E090E04A9903
:103A80001CC0FE01E050FF4F63816623F9F02091D6
:103A900057013091580184819581820F931F0E94B4
:103AA000021C811113C0529A5A9A7894DF91CF91D7
:103AB0001F910F91089500C0DECF019729F4529A0B
:103AC0005A9A789480E0F2CF00C0D9CF0E94C81BE8
:103AD00080E28A95F1F75A98529A80E18A95F1F737
:103AE000C050DF4F6881662351F02091570130911B
:103AF000580189819A81820F931F0E944F1C0E9456
:103B0000D01B789481E0D2CF2F923F924F925F9258
:103B10006F927F928F929F92AF92BF92CF92DF92DD
:103B2000EF92FF920F931F93CF93DF93CDB7DEB742
:103B3000CA1BDB0B0FB6F894DEBF0FBECDBF0994D6
:103B40002A88398848885F846E847D848C849B842D
:103B5000AA84B984C884DF80EE80FD800C811B813B
:103B6000AA81B981CE0FD11D0FB6F894DEBF0FBE6A
:103B7000CDBFED01089597FB072E16F4009407D0F2
:103B800077FD09D00E94D51D07FC05D03EF4909525
:103B900081959F4F0895709561957F4F0895EE0F21
:103BA000FF1F0590F491E02D0994AA1BBB1B51E166
:103BB00007C0AA1FBB1FA617B70710F0A61BB70B9D
:103BC000881F991F5A95A9F780959095BC01CD0142
:103BD0000895F999FECF92BD81BDF89A992780B5D5
:103BE0000895A8E1B0E042E050E00C941D1E262F9D
:103BF000F999FECF92BD81BDF89A019700B40216E3
:103C000039F01FBA20BD0FB6F894FA9AF99A0FBE90
:103C100008950396272F0E94F81D0E94F71D252F57
:103C20000E94F81D242F0C94F81D0196272F0E9446
:103C3000F81D0C94F71DDC01CB01FC01F999FECFB6
:103C400006C0F2BDE1BDF89A319600B40D92415024
:103C50005040B8F70895FB01DC0104C08D9101903C
:103C6000801921F441505040C8F7881B990B0895E2
:103C7000FB01DC0102C001900D9241505040D8F789
:103C80000895F894FFCFB30CDB0C730EDB0C730EAE
:103C90000E0D2F0D730E2C0E390EE30EE70EC90E0E
:103CA000DF0EEB0EEF0EF30E4E0FC30F560F200F6D
:103CB000240F5A0F280F5E0F6A0F340FBC0F380FF6
:103CC0006E0F3C0F720F9A0F400F760FA10F460F29
:103CD0007C0F840F2C0F620F300F660F4A0F800F7E
:103CE000900FAA0FBA0F1A0F520FCA0F3E103E10B4
:103CF000771077101E113811A510A5103D11C511B0
:043D0000D411D411F5
:103D040000000001000000000000000401000000A9
:103D1400040500000000000001EA0393098C0985F2
:103D24000901818283E200E900EA00B500B600B728
:103D340000CD008301CC008A019201940121022369
:103D44000224022502260227022A02B300B4006FCD
:103D54000070009F01CB010E02946697C6F4F5F63D
:043D6400F731330000
:00000001FF
